{
	"contracts/Web3Voting.sol": {
		"Web3Voting": {
			"abi": [
				{
					"inputs": [],
					"stateMutability": "nonpayable",
					"type": "constructor"
				},
				{
					"inputs": [
						{
							"internalType": "uint256",
							"name": "choice",
							"type": "uint256"
						}
					],
					"name": "addVote",
					"outputs": [],
					"stateMutability": "nonpayable",
					"type": "function"
				},
				{
					"inputs": [
						{
							"internalType": "string",
							"name": "option1",
							"type": "string"
						},
						{
							"internalType": "string",
							"name": "option2",
							"type": "string"
						},
						{
							"internalType": "uint256",
							"name": "timeToVote",
							"type": "uint256"
						}
					],
					"name": "addVoting",
					"outputs": [],
					"stateMutability": "nonpayable",
					"type": "function"
				},
				{
					"inputs": [],
					"name": "currentVoting",
					"outputs": [
						{
							"internalType": "uint256",
							"name": "",
							"type": "uint256"
						}
					],
					"stateMutability": "view",
					"type": "function"
				},
				{
					"inputs": [],
					"name": "getCurrentVoting",
					"outputs": [
						{
							"components": [
								{
									"internalType": "string",
									"name": "option1",
									"type": "string"
								},
								{
									"internalType": "uint256",
									"name": "votes1",
									"type": "uint256"
								},
								{
									"internalType": "string",
									"name": "option2",
									"type": "string"
								},
								{
									"internalType": "uint256",
									"name": "votes2",
									"type": "uint256"
								},
								{
									"internalType": "uint256",
									"name": "maxDate",
									"type": "uint256"
								}
							],
							"internalType": "struct Voting",
							"name": "",
							"type": "tuple"
						}
					],
					"stateMutability": "view",
					"type": "function"
				},
				{
					"inputs": [
						{
							"internalType": "uint256",
							"name": "",
							"type": "uint256"
						},
						{
							"internalType": "address",
							"name": "",
							"type": "address"
						}
					],
					"name": "votes",
					"outputs": [
						{
							"internalType": "uint256",
							"name": "choice",
							"type": "uint256"
						},
						{
							"internalType": "uint256",
							"name": "date",
							"type": "uint256"
						}
					],
					"stateMutability": "view",
					"type": "function"
				},
				{
					"inputs": [
						{
							"internalType": "uint256",
							"name": "",
							"type": "uint256"
						}
					],
					"name": "votings",
					"outputs": [
						{
							"internalType": "string",
							"name": "option1",
							"type": "string"
						},
						{
							"internalType": "uint256",
							"name": "votes1",
							"type": "uint256"
						},
						{
							"internalType": "string",
							"name": "option2",
							"type": "string"
						},
						{
							"internalType": "uint256",
							"name": "votes2",
							"type": "uint256"
						},
						{
							"internalType": "uint256",
							"name": "maxDate",
							"type": "uint256"
						}
					],
					"stateMutability": "view",
					"type": "function"
				}
			],
			"devdoc": {
				"kind": "dev",
				"methods": {},
				"version": 1
			},
			"evm": {
				"assembly": "    /* \"contracts/Web3Voting.sol\":234:1548  contract Web3Voting {... */\n  mstore(0x40, 0x80)\n    /* \"contracts/Web3Voting.sol\":309:310  0 */\n  0x00\n    /* \"contracts/Web3Voting.sol\":281:310  uint public currentVoting = 0 */\n  0x01\n  sstore\n    /* \"contracts/Web3Voting.sol\":410:460  constructor(){... */\n  callvalue\n  dup1\n  iszero\n  tag_1\n  jumpi\n  0x00\n  dup1\n  revert\ntag_1:\n  pop\n    /* \"contracts/Web3Voting.sol\":442:452  msg.sender */\n  caller\n    /* \"contracts/Web3Voting.sol\":434:439  owner */\n  0x00\n  dup1\n    /* \"contracts/Web3Voting.sol\":434:452  owner = msg.sender */\n  0x0100\n  exp\n  dup2\n  sload\n  dup2\n  0xffffffffffffffffffffffffffffffffffffffff\n  mul\n  not\n  and\n  swap1\n  dup4\n  0xffffffffffffffffffffffffffffffffffffffff\n  and\n  mul\n  or\n  swap1\n  sstore\n  pop\n    /* \"contracts/Web3Voting.sol\":234:1548  contract Web3Voting {... */\n  dataSize(sub_0)\n  dup1\n  dataOffset(sub_0)\n  0x00\n  codecopy\n  0x00\n  return\nstop\n\nsub_0: assembly {\n        /* \"contracts/Web3Voting.sol\":234:1548  contract Web3Voting {... */\n      mstore(0x40, 0x80)\n      callvalue\n      dup1\n      iszero\n      tag_1\n      jumpi\n      0x00\n      dup1\n      revert\n    tag_1:\n      pop\n      jumpi(tag_2, lt(calldatasize, 0x04))\n      shr(0xe0, calldataload(0x00))\n      dup1\n      0x0383badc\n      eq\n      tag_3\n      jumpi\n      dup1\n      0x1c7bec9d\n      eq\n      tag_4\n      jumpi\n      dup1\n      0x55f9b1ec\n      eq\n      tag_5\n      jumpi\n      dup1\n      0xa598d03c\n      eq\n      tag_6\n      jumpi\n      dup1\n      0xd23254b4\n      eq\n      tag_7\n      jumpi\n      dup1\n      0xf1156cdf\n      eq\n      tag_8\n      jumpi\n    tag_2:\n      0x00\n      dup1\n      revert\n        /* \"contracts/Web3Voting.sol\":1022:1545  function addVote(uint choice) public {... */\n    tag_3:\n      tag_9\n      0x04\n      dup1\n      calldatasize\n      sub\n      dup2\n      add\n      swap1\n      tag_10\n      swap2\n      swap1\n      tag_11\n      jump\t// in\n    tag_10:\n      tag_12\n      jump\t// in\n    tag_9:\n      stop\n        /* \"contracts/Web3Voting.sol\":281:310  uint public currentVoting = 0 */\n    tag_4:\n      tag_13\n      tag_14\n      jump\t// in\n    tag_13:\n      mload(0x40)\n      tag_15\n      swap2\n      swap1\n      tag_16\n      jump\t// in\n    tag_15:\n      mload(0x40)\n      dup1\n      swap2\n      sub\n      swap1\n      return\n        /* \"contracts/Web3Voting.sol\":587:1014  function addVoting(string memory option1, string memory option2, uint timeToVote) public {... */\n    tag_5:\n      tag_17\n      0x04\n      dup1\n      calldatasize\n      sub\n      dup2\n      add\n      swap1\n      tag_18\n      swap2\n      swap1\n      tag_19\n      jump\t// in\n    tag_18:\n      tag_20\n      jump\t// in\n    tag_17:\n      stop\n        /* \"contracts/Web3Voting.sol\":317:340  Voting[] public votings */\n    tag_6:\n      tag_21\n      0x04\n      dup1\n      calldatasize\n      sub\n      dup2\n      add\n      swap1\n      tag_22\n      swap2\n      swap1\n      tag_11\n      jump\t// in\n    tag_22:\n      tag_23\n      jump\t// in\n    tag_21:\n      mload(0x40)\n      tag_24\n      swap6\n      swap5\n      swap4\n      swap3\n      swap2\n      swap1\n      tag_25\n      jump\t// in\n    tag_24:\n      mload(0x40)\n      dup1\n      swap2\n      sub\n      swap1\n      return\n        /* \"contracts/Web3Voting.sol\":347:401  mapping(uint => mapping(address => Vote)) public votes */\n    tag_7:\n      tag_26\n      0x04\n      dup1\n      calldatasize\n      sub\n      dup2\n      add\n      swap1\n      tag_27\n      swap2\n      swap1\n      tag_28\n      jump\t// in\n    tag_27:\n      tag_29\n      jump\t// in\n    tag_26:\n      mload(0x40)\n      tag_30\n      swap3\n      swap2\n      swap1\n      tag_31\n      jump\t// in\n    tag_30:\n      mload(0x40)\n      dup1\n      swap2\n      sub\n      swap1\n      return\n        /* \"contracts/Web3Voting.sol\":468:579  function getCurrentVoting() public view returns (Voting memory){... */\n    tag_8:\n      tag_32\n      tag_33\n      jump\t// in\n    tag_32:\n      mload(0x40)\n      tag_34\n      swap2\n      swap1\n      tag_35\n      jump\t// in\n    tag_34:\n      mload(0x40)\n      dup1\n      swap2\n      sub\n      swap1\n      return\n        /* \"contracts/Web3Voting.sol\":1022:1545  function addVote(uint choice) public {... */\n    tag_12:\n        /* \"contracts/Web3Voting.sol\":1088:1089  1 */\n      0x01\n        /* \"contracts/Web3Voting.sol\":1078:1084  choice */\n      dup2\n        /* \"contracts/Web3Voting.sol\":1078:1089  choice == 1 */\n      eq\n        /* \"contracts/Web3Voting.sol\":1078:1104  choice == 1 || choice == 2 */\n      dup1\n      tag_37\n      jumpi\n      pop\n        /* \"contracts/Web3Voting.sol\":1103:1104  2 */\n      0x02\n        /* \"contracts/Web3Voting.sol\":1093:1099  choice */\n      dup2\n        /* \"contracts/Web3Voting.sol\":1093:1104  choice == 2 */\n      eq\n        /* \"contracts/Web3Voting.sol\":1078:1104  choice == 1 || choice == 2 */\n    tag_37:\n        /* \"contracts/Web3Voting.sol\":1070:1123  require(choice == 1 || choice == 2, \"Invalid choice\") */\n      tag_38\n      jumpi\n      mload(0x40)\n      0x08c379a000000000000000000000000000000000000000000000000000000000\n      dup2\n      mstore\n      0x04\n      add\n      tag_39\n      swap1\n      tag_40\n      jump\t// in\n    tag_39:\n      mload(0x40)\n      dup1\n      swap2\n      sub\n      swap1\n      revert\n    tag_38:\n        /* \"contracts/Web3Voting.sol\":1171:1186  block.timestamp */\n      timestamp\n        /* \"contracts/Web3Voting.sol\":1142:1160  getCurrentVoting() */\n      tag_41\n        /* \"contracts/Web3Voting.sol\":1142:1158  getCurrentVoting */\n      tag_33\n        /* \"contracts/Web3Voting.sol\":1142:1160  getCurrentVoting() */\n      jump\t// in\n    tag_41:\n        /* \"contracts/Web3Voting.sol\":1142:1168  getCurrentVoting().maxDate */\n      0x80\n      add\n      mload\n        /* \"contracts/Web3Voting.sol\":1142:1186  getCurrentVoting().maxDate > block.timestamp */\n      gt\n        /* \"contracts/Web3Voting.sol\":1134:1205  require(getCurrentVoting().maxDate > block.timestamp, \"No open voting\") */\n      tag_42\n      jumpi\n      mload(0x40)\n      0x08c379a000000000000000000000000000000000000000000000000000000000\n      dup2\n      mstore\n      0x04\n      add\n      tag_43\n      swap1\n      tag_44\n      jump\t// in\n    tag_43:\n      mload(0x40)\n      dup1\n      swap2\n      sub\n      swap1\n      revert\n    tag_42:\n        /* \"contracts/Web3Voting.sol\":1265:1266  0 */\n      0x00\n        /* \"contracts/Web3Voting.sol\":1224:1229  votes */\n      0x03\n        /* \"contracts/Web3Voting.sol\":1224:1244  votes[currentVoting] */\n      0x00\n        /* \"contracts/Web3Voting.sol\":1230:1243  currentVoting */\n      sload(0x01)\n        /* \"contracts/Web3Voting.sol\":1224:1244  votes[currentVoting] */\n      dup2\n      mstore\n      0x20\n      add\n      swap1\n      dup2\n      mstore\n      0x20\n      add\n      0x00\n      keccak256\n        /* \"contracts/Web3Voting.sol\":1224:1256  votes[currentVoting][msg.sender] */\n      0x00\n        /* \"contracts/Web3Voting.sol\":1245:1255  msg.sender */\n      caller\n        /* \"contracts/Web3Voting.sol\":1224:1256  votes[currentVoting][msg.sender] */\n      0xffffffffffffffffffffffffffffffffffffffff\n      and\n      0xffffffffffffffffffffffffffffffffffffffff\n      and\n      dup2\n      mstore\n      0x20\n      add\n      swap1\n      dup2\n      mstore\n      0x20\n      add\n      0x00\n      keccak256\n        /* \"contracts/Web3Voting.sol\":1224:1261  votes[currentVoting][msg.sender].date */\n      0x01\n      add\n      sload\n        /* \"contracts/Web3Voting.sol\":1224:1266  votes[currentVoting][msg.sender].date == 0 */\n      eq\n        /* \"contracts/Web3Voting.sol\":1216:1303  require(votes[currentVoting][msg.sender].date == 0, \"You already voted on this voting\") */\n      tag_45\n      jumpi\n      mload(0x40)\n      0x08c379a000000000000000000000000000000000000000000000000000000000\n      dup2\n      mstore\n      0x04\n      add\n      tag_46\n      swap1\n      tag_47\n      jump\t// in\n    tag_46:\n      mload(0x40)\n      dup1\n      swap2\n      sub\n      swap1\n      revert\n    tag_45:\n        /* \"contracts/Web3Voting.sol\":1358:1364  choice */\n      dup1\n        /* \"contracts/Web3Voting.sol\":1316:1321  votes */\n      0x03\n        /* \"contracts/Web3Voting.sol\":1316:1336  votes[currentVoting] */\n      0x00\n        /* \"contracts/Web3Voting.sol\":1322:1335  currentVoting */\n      sload(0x01)\n        /* \"contracts/Web3Voting.sol\":1316:1336  votes[currentVoting] */\n      dup2\n      mstore\n      0x20\n      add\n      swap1\n      dup2\n      mstore\n      0x20\n      add\n      0x00\n      keccak256\n        /* \"contracts/Web3Voting.sol\":1316:1348  votes[currentVoting][msg.sender] */\n      0x00\n        /* \"contracts/Web3Voting.sol\":1337:1347  msg.sender */\n      caller\n        /* \"contracts/Web3Voting.sol\":1316:1348  votes[currentVoting][msg.sender] */\n      0xffffffffffffffffffffffffffffffffffffffff\n      and\n      0xffffffffffffffffffffffffffffffffffffffff\n      and\n      dup2\n      mstore\n      0x20\n      add\n      swap1\n      dup2\n      mstore\n      0x20\n      add\n      0x00\n      keccak256\n        /* \"contracts/Web3Voting.sol\":1316:1355  votes[currentVoting][msg.sender].choice */\n      0x00\n      add\n        /* \"contracts/Web3Voting.sol\":1316:1364  votes[currentVoting][msg.sender].choice = choice */\n      dup2\n      swap1\n      sstore\n      pop\n        /* \"contracts/Web3Voting.sol\":1415:1430  block.timestamp */\n      timestamp\n        /* \"contracts/Web3Voting.sol\":1375:1380  votes */\n      0x03\n        /* \"contracts/Web3Voting.sol\":1375:1395  votes[currentVoting] */\n      0x00\n        /* \"contracts/Web3Voting.sol\":1381:1394  currentVoting */\n      sload(0x01)\n        /* \"contracts/Web3Voting.sol\":1375:1395  votes[currentVoting] */\n      dup2\n      mstore\n      0x20\n      add\n      swap1\n      dup2\n      mstore\n      0x20\n      add\n      0x00\n      keccak256\n        /* \"contracts/Web3Voting.sol\":1375:1407  votes[currentVoting][msg.sender] */\n      0x00\n        /* \"contracts/Web3Voting.sol\":1396:1406  msg.sender */\n      caller\n        /* \"contracts/Web3Voting.sol\":1375:1407  votes[currentVoting][msg.sender] */\n      0xffffffffffffffffffffffffffffffffffffffff\n      and\n      0xffffffffffffffffffffffffffffffffffffffff\n      and\n      dup2\n      mstore\n      0x20\n      add\n      swap1\n      dup2\n      mstore\n      0x20\n      add\n      0x00\n      keccak256\n        /* \"contracts/Web3Voting.sol\":1375:1412  votes[currentVoting][msg.sender].date */\n      0x01\n      add\n        /* \"contracts/Web3Voting.sol\":1375:1430  votes[currentVoting][msg.sender].date = block.timestamp */\n      dup2\n      swap1\n      sstore\n      pop\n        /* \"contracts/Web3Voting.sol\":1456:1457  1 */\n      0x01\n        /* \"contracts/Web3Voting.sol\":1446:1452  choice */\n      dup2\n        /* \"contracts/Web3Voting.sol\":1446:1457  choice == 1 */\n      sub\n        /* \"contracts/Web3Voting.sol\":1443:1537  if(choice == 1) votings[currentVoting].votes1++;... */\n      tag_48\n      jumpi\n        /* \"contracts/Web3Voting.sol\":1459:1466  votings */\n      0x02\n        /* \"contracts/Web3Voting.sol\":1467:1480  currentVoting */\n      sload(0x01)\n        /* \"contracts/Web3Voting.sol\":1459:1481  votings[currentVoting] */\n      dup2\n      sload\n      dup2\n      lt\n      tag_49\n      jumpi\n      tag_50\n      tag_51\n      jump\t// in\n    tag_50:\n    tag_49:\n      swap1\n      0x00\n      mstore\n      keccak256(0x00, 0x20)\n      swap1\n      0x05\n      mul\n      add\n        /* \"contracts/Web3Voting.sol\":1459:1488  votings[currentVoting].votes1 */\n      0x01\n      add\n      0x00\n        /* \"contracts/Web3Voting.sol\":1459:1490  votings[currentVoting].votes1++ */\n      dup2\n      sload\n      dup1\n      swap3\n      swap2\n      swap1\n      tag_53\n      swap1\n      tag_54\n      jump\t// in\n    tag_53:\n      swap2\n      swap1\n      pop\n      sstore\n      pop\n        /* \"contracts/Web3Voting.sol\":1443:1537  if(choice == 1) votings[currentVoting].votes1++;... */\n      jump(tag_55)\n    tag_48:\n        /* \"contracts/Web3Voting.sol\":1506:1513  votings */\n      0x02\n        /* \"contracts/Web3Voting.sol\":1514:1527  currentVoting */\n      sload(0x01)\n        /* \"contracts/Web3Voting.sol\":1506:1528  votings[currentVoting] */\n      dup2\n      sload\n      dup2\n      lt\n      tag_56\n      jumpi\n      tag_57\n      tag_51\n      jump\t// in\n    tag_57:\n    tag_56:\n      swap1\n      0x00\n      mstore\n      keccak256(0x00, 0x20)\n      swap1\n      0x05\n      mul\n      add\n        /* \"contracts/Web3Voting.sol\":1506:1535  votings[currentVoting].votes2 */\n      0x03\n      add\n      0x00\n        /* \"contracts/Web3Voting.sol\":1506:1537  votings[currentVoting].votes2++ */\n      dup2\n      sload\n      dup1\n      swap3\n      swap2\n      swap1\n      tag_59\n      swap1\n      tag_54\n      jump\t// in\n    tag_59:\n      swap2\n      swap1\n      pop\n      sstore\n      pop\n        /* \"contracts/Web3Voting.sol\":1443:1537  if(choice == 1) votings[currentVoting].votes1++;... */\n    tag_55:\n        /* \"contracts/Web3Voting.sol\":1022:1545  function addVote(uint choice) public {... */\n      pop\n      jump\t// out\n        /* \"contracts/Web3Voting.sol\":281:310  uint public currentVoting = 0 */\n    tag_14:\n      sload(0x01)\n      dup2\n      jump\t// out\n        /* \"contracts/Web3Voting.sol\":587:1014  function addVoting(string memory option1, string memory option2, uint timeToVote) public {... */\n    tag_20:\n        /* \"contracts/Web3Voting.sol\":709:714  owner */\n      0x00\n      dup1\n      sload\n      swap1\n      0x0100\n      exp\n      swap1\n      div\n      0xffffffffffffffffffffffffffffffffffffffff\n      and\n        /* \"contracts/Web3Voting.sol\":695:714  msg.sender == owner */\n      0xffffffffffffffffffffffffffffffffffffffff\n      and\n        /* \"contracts/Web3Voting.sol\":695:705  msg.sender */\n      caller\n        /* \"contracts/Web3Voting.sol\":695:714  msg.sender == owner */\n      0xffffffffffffffffffffffffffffffffffffffff\n      and\n      eq\n        /* \"contracts/Web3Voting.sol\":687:733  require(msg.sender == owner, \"Invalid sender\") */\n      tag_61\n      jumpi\n      mload(0x40)\n      0x08c379a000000000000000000000000000000000000000000000000000000000\n      dup2\n      mstore\n      0x04\n      add\n      tag_62\n      swap1\n      tag_63\n      jump\t// in\n    tag_62:\n      mload(0x40)\n      dup1\n      swap2\n      sub\n      swap1\n      revert\n    tag_61:\n        /* \"contracts/Web3Voting.sol\":775:776  0 */\n      0x00\n        /* \"contracts/Web3Voting.sol\":757:764  votings */\n      0x02\n        /* \"contracts/Web3Voting.sol\":757:771  votings.length */\n      dup1\n      sload\n      swap1\n      pop\n        /* \"contracts/Web3Voting.sol\":757:776  votings.length != 0 */\n      eq\n        /* \"contracts/Web3Voting.sol\":754:793  if(votings.length != 0) currentVoting++ */\n      tag_64\n      jumpi\n        /* \"contracts/Web3Voting.sol\":778:791  currentVoting */\n      0x01\n      0x00\n        /* \"contracts/Web3Voting.sol\":778:793  currentVoting++ */\n      dup2\n      sload\n      dup1\n      swap3\n      swap2\n      swap1\n      tag_65\n      swap1\n      tag_54\n      jump\t// in\n    tag_65:\n      swap2\n      swap1\n      pop\n      sstore\n      pop\n        /* \"contracts/Web3Voting.sol\":754:793  if(votings.length != 0) currentVoting++ */\n    tag_64:\n        /* \"contracts/Web3Voting.sol\":814:837  Voting memory newVoting */\n      tag_66\n      tag_67\n      jump\t// in\n    tag_66:\n        /* \"contracts/Web3Voting.sol\":868:875  option1 */\n      dup4\n        /* \"contracts/Web3Voting.sol\":848:857  newVoting */\n      dup2\n        /* \"contracts/Web3Voting.sol\":848:865  newVoting.option1 */\n      0x00\n      add\n        /* \"contracts/Web3Voting.sol\":848:875  newVoting.option1 = option1 */\n      dup2\n      swap1\n      mstore\n      pop\n        /* \"contracts/Web3Voting.sol\":906:913  option2 */\n      dup3\n        /* \"contracts/Web3Voting.sol\":886:895  newVoting */\n      dup2\n        /* \"contracts/Web3Voting.sol\":886:903  newVoting.option2 */\n      0x40\n      add\n        /* \"contracts/Web3Voting.sol\":886:913  newVoting.option2 = option2 */\n      dup2\n      swap1\n      mstore\n      pop\n        /* \"contracts/Web3Voting.sol\":957:972  block.timestamp */\n      timestamp\n        /* \"contracts/Web3Voting.sol\":944:954  timeToVote */\n      dup3\n        /* \"contracts/Web3Voting.sol\":944:972  timeToVote + block.timestamp */\n      tag_68\n      swap2\n      swap1\n      tag_69\n      jump\t// in\n    tag_68:\n        /* \"contracts/Web3Voting.sol\":924:933  newVoting */\n      dup2\n        /* \"contracts/Web3Voting.sol\":924:941  newVoting.maxDate */\n      0x80\n      add\n        /* \"contracts/Web3Voting.sol\":924:972  newVoting.maxDate = timeToVote + block.timestamp */\n      dup2\n      dup2\n      mstore\n      pop\n      pop\n        /* \"contracts/Web3Voting.sol\":983:990  votings */\n      0x02\n        /* \"contracts/Web3Voting.sol\":996:1005  newVoting */\n      dup2\n        /* \"contracts/Web3Voting.sol\":983:1006  votings.push(newVoting) */\n      swap1\n      dup1\n      0x01\n      dup2\n      sload\n      add\n      dup1\n      dup3\n      sstore\n      dup1\n      swap2\n      pop\n      pop\n      0x01\n      swap1\n      sub\n      swap1\n      0x00\n      mstore\n      keccak256(0x00, 0x20)\n      swap1\n      0x05\n      mul\n      add\n      0x00\n      swap1\n      swap2\n      swap1\n      swap2\n      swap1\n      swap2\n      pop\n      0x00\n      dup3\n      add\n      mload\n      dup2\n      0x00\n      add\n      swap1\n      dup2\n      tag_71\n      swap2\n      swap1\n      tag_72\n      jump\t// in\n    tag_71:\n      pop\n      0x20\n      dup3\n      add\n      mload\n      dup2\n      0x01\n      add\n      sstore\n      0x40\n      dup3\n      add\n      mload\n      dup2\n      0x02\n      add\n      swap1\n      dup2\n      tag_73\n      swap2\n      swap1\n      tag_72\n      jump\t// in\n    tag_73:\n      pop\n      0x60\n      dup3\n      add\n      mload\n      dup2\n      0x03\n      add\n      sstore\n      0x80\n      dup3\n      add\n      mload\n      dup2\n      0x04\n      add\n      sstore\n      pop\n      pop\n        /* \"contracts/Web3Voting.sol\":676:1014  {... */\n      pop\n        /* \"contracts/Web3Voting.sol\":587:1014  function addVoting(string memory option1, string memory option2, uint timeToVote) public {... */\n      pop\n      pop\n      pop\n      jump\t// out\n        /* \"contracts/Web3Voting.sol\":317:340  Voting[] public votings */\n    tag_23:\n      0x02\n      dup2\n      dup2\n      sload\n      dup2\n      lt\n      tag_74\n      jumpi\n      0x00\n      dup1\n      revert\n    tag_74:\n      swap1\n      0x00\n      mstore\n      keccak256(0x00, 0x20)\n      swap1\n      0x05\n      mul\n      add\n      0x00\n      swap2\n      pop\n      swap1\n      pop\n      dup1\n      0x00\n      add\n      dup1\n      sload\n      tag_76\n      swap1\n      tag_77\n      jump\t// in\n    tag_76:\n      dup1\n      0x1f\n      add\n      0x20\n      dup1\n      swap2\n      div\n      mul\n      0x20\n      add\n      mload(0x40)\n      swap1\n      dup2\n      add\n      0x40\n      mstore\n      dup1\n      swap3\n      swap2\n      swap1\n      dup2\n      dup2\n      mstore\n      0x20\n      add\n      dup3\n      dup1\n      sload\n      tag_78\n      swap1\n      tag_77\n      jump\t// in\n    tag_78:\n      dup1\n      iszero\n      tag_79\n      jumpi\n      dup1\n      0x1f\n      lt\n      tag_80\n      jumpi\n      0x0100\n      dup1\n      dup4\n      sload\n      div\n      mul\n      dup4\n      mstore\n      swap2\n      0x20\n      add\n      swap2\n      jump(tag_79)\n    tag_80:\n      dup3\n      add\n      swap2\n      swap1\n      0x00\n      mstore\n      keccak256(0x00, 0x20)\n      swap1\n    tag_81:\n      dup2\n      sload\n      dup2\n      mstore\n      swap1\n      0x01\n      add\n      swap1\n      0x20\n      add\n      dup1\n      dup4\n      gt\n      tag_81\n      jumpi\n      dup3\n      swap1\n      sub\n      0x1f\n      and\n      dup3\n      add\n      swap2\n    tag_79:\n      pop\n      pop\n      pop\n      pop\n      pop\n      swap1\n      dup1\n      0x01\n      add\n      sload\n      swap1\n      dup1\n      0x02\n      add\n      dup1\n      sload\n      tag_82\n      swap1\n      tag_77\n      jump\t// in\n    tag_82:\n      dup1\n      0x1f\n      add\n      0x20\n      dup1\n      swap2\n      div\n      mul\n      0x20\n      add\n      mload(0x40)\n      swap1\n      dup2\n      add\n      0x40\n      mstore\n      dup1\n      swap3\n      swap2\n      swap1\n      dup2\n      dup2\n      mstore\n      0x20\n      add\n      dup3\n      dup1\n      sload\n      tag_83\n      swap1\n      tag_77\n      jump\t// in\n    tag_83:\n      dup1\n      iszero\n      tag_84\n      jumpi\n      dup1\n      0x1f\n      lt\n      tag_85\n      jumpi\n      0x0100\n      dup1\n      dup4\n      sload\n      div\n      mul\n      dup4\n      mstore\n      swap2\n      0x20\n      add\n      swap2\n      jump(tag_84)\n    tag_85:\n      dup3\n      add\n      swap2\n      swap1\n      0x00\n      mstore\n      keccak256(0x00, 0x20)\n      swap1\n    tag_86:\n      dup2\n      sload\n      dup2\n      mstore\n      swap1\n      0x01\n      add\n      swap1\n      0x20\n      add\n      dup1\n      dup4\n      gt\n      tag_86\n      jumpi\n      dup3\n      swap1\n      sub\n      0x1f\n      and\n      dup3\n      add\n      swap2\n    tag_84:\n      pop\n      pop\n      pop\n      pop\n      pop\n      swap1\n      dup1\n      0x03\n      add\n      sload\n      swap1\n      dup1\n      0x04\n      add\n      sload\n      swap1\n      pop\n      dup6\n      jump\t// out\n        /* \"contracts/Web3Voting.sol\":347:401  mapping(uint => mapping(address => Vote)) public votes */\n    tag_29:\n      mstore(0x20, 0x03)\n      dup2\n      0x00\n      mstore\n      mstore(0x20, keccak256(0x00, 0x40))\n      dup1\n      0x00\n      mstore\n      keccak256(0x00, 0x40)\n      0x00\n      swap2\n      pop\n      swap2\n      pop\n      pop\n      dup1\n      0x00\n      add\n      sload\n      swap1\n      dup1\n      0x01\n      add\n      sload\n      swap1\n      pop\n      dup3\n      jump\t// out\n        /* \"contracts/Web3Voting.sol\":468:579  function getCurrentVoting() public view returns (Voting memory){... */\n    tag_33:\n        /* \"contracts/Web3Voting.sol\":517:530  Voting memory */\n      tag_87\n      tag_67\n      jump\t// in\n    tag_87:\n        /* \"contracts/Web3Voting.sol\":549:556  votings */\n      0x02\n        /* \"contracts/Web3Voting.sol\":557:570  currentVoting */\n      sload(0x01)\n        /* \"contracts/Web3Voting.sol\":549:571  votings[currentVoting] */\n      dup2\n      sload\n      dup2\n      lt\n      tag_89\n      jumpi\n      tag_90\n      tag_51\n      jump\t// in\n    tag_90:\n    tag_89:\n      swap1\n      0x00\n      mstore\n      keccak256(0x00, 0x20)\n      swap1\n      0x05\n      mul\n      add\n        /* \"contracts/Web3Voting.sol\":542:571  return votings[currentVoting] */\n      mload(0x40)\n      dup1\n      0xa0\n      add\n      0x40\n      mstore\n      swap1\n      dup2\n      0x00\n      dup3\n      add\n      dup1\n      sload\n      tag_92\n      swap1\n      tag_77\n      jump\t// in\n    tag_92:\n      dup1\n      0x1f\n      add\n      0x20\n      dup1\n      swap2\n      div\n      mul\n      0x20\n      add\n      mload(0x40)\n      swap1\n      dup2\n      add\n      0x40\n      mstore\n      dup1\n      swap3\n      swap2\n      swap1\n      dup2\n      dup2\n      mstore\n      0x20\n      add\n      dup3\n      dup1\n      sload\n      tag_93\n      swap1\n      tag_77\n      jump\t// in\n    tag_93:\n      dup1\n      iszero\n      tag_94\n      jumpi\n      dup1\n      0x1f\n      lt\n      tag_95\n      jumpi\n      0x0100\n      dup1\n      dup4\n      sload\n      div\n      mul\n      dup4\n      mstore\n      swap2\n      0x20\n      add\n      swap2\n      jump(tag_94)\n    tag_95:\n      dup3\n      add\n      swap2\n      swap1\n      0x00\n      mstore\n      keccak256(0x00, 0x20)\n      swap1\n    tag_96:\n      dup2\n      sload\n      dup2\n      mstore\n      swap1\n      0x01\n      add\n      swap1\n      0x20\n      add\n      dup1\n      dup4\n      gt\n      tag_96\n      jumpi\n      dup3\n      swap1\n      sub\n      0x1f\n      and\n      dup3\n      add\n      swap2\n    tag_94:\n      pop\n      pop\n      pop\n      pop\n      pop\n      dup2\n      mstore\n      0x20\n      add\n      0x01\n      dup3\n      add\n      sload\n      dup2\n      mstore\n      0x20\n      add\n      0x02\n      dup3\n      add\n      dup1\n      sload\n      tag_97\n      swap1\n      tag_77\n      jump\t// in\n    tag_97:\n      dup1\n      0x1f\n      add\n      0x20\n      dup1\n      swap2\n      div\n      mul\n      0x20\n      add\n      mload(0x40)\n      swap1\n      dup2\n      add\n      0x40\n      mstore\n      dup1\n      swap3\n      swap2\n      swap1\n      dup2\n      dup2\n      mstore\n      0x20\n      add\n      dup3\n      dup1\n      sload\n      tag_98\n      swap1\n      tag_77\n      jump\t// in\n    tag_98:\n      dup1\n      iszero\n      tag_99\n      jumpi\n      dup1\n      0x1f\n      lt\n      tag_100\n      jumpi\n      0x0100\n      dup1\n      dup4\n      sload\n      div\n      mul\n      dup4\n      mstore\n      swap2\n      0x20\n      add\n      swap2\n      jump(tag_99)\n    tag_100:\n      dup3\n      add\n      swap2\n      swap1\n      0x00\n      mstore\n      keccak256(0x00, 0x20)\n      swap1\n    tag_101:\n      dup2\n      sload\n      dup2\n      mstore\n      swap1\n      0x01\n      add\n      swap1\n      0x20\n      add\n      dup1\n      dup4\n      gt\n      tag_101\n      jumpi\n      dup3\n      swap1\n      sub\n      0x1f\n      and\n      dup3\n      add\n      swap2\n    tag_99:\n      pop\n      pop\n      pop\n      pop\n      pop\n      dup2\n      mstore\n      0x20\n      add\n      0x03\n      dup3\n      add\n      sload\n      dup2\n      mstore\n      0x20\n      add\n      0x04\n      dup3\n      add\n      sload\n      dup2\n      mstore\n      pop\n      pop\n      swap1\n      pop\n        /* \"contracts/Web3Voting.sol\":468:579  function getCurrentVoting() public view returns (Voting memory){... */\n      swap1\n      jump\t// out\n    tag_67:\n      mload(0x40)\n      dup1\n      0xa0\n      add\n      0x40\n      mstore\n      dup1\n      0x60\n      dup2\n      mstore\n      0x20\n      add\n      0x00\n      dup2\n      mstore\n      0x20\n      add\n      0x60\n      dup2\n      mstore\n      0x20\n      add\n      0x00\n      dup2\n      mstore\n      0x20\n      add\n      0x00\n      dup2\n      mstore\n      pop\n      swap1\n      jump\t// out\n        /* \"#utility.yul\":7:82   */\n    tag_102:\n        /* \"#utility.yul\":40:46   */\n      0x00\n        /* \"#utility.yul\":73:75   */\n      0x40\n        /* \"#utility.yul\":67:76   */\n      mload\n        /* \"#utility.yul\":57:76   */\n      swap1\n      pop\n        /* \"#utility.yul\":7:82   */\n      swap1\n      jump\t// out\n        /* \"#utility.yul\":88:205   */\n    tag_103:\n        /* \"#utility.yul\":197:198   */\n      0x00\n        /* \"#utility.yul\":194:195   */\n      dup1\n        /* \"#utility.yul\":187:199   */\n      revert\n        /* \"#utility.yul\":211:328   */\n    tag_104:\n        /* \"#utility.yul\":320:321   */\n      0x00\n        /* \"#utility.yul\":317:318   */\n      dup1\n        /* \"#utility.yul\":310:322   */\n      revert\n        /* \"#utility.yul\":334:411   */\n    tag_105:\n        /* \"#utility.yul\":371:378   */\n      0x00\n        /* \"#utility.yul\":400:405   */\n      dup2\n        /* \"#utility.yul\":389:405   */\n      swap1\n      pop\n        /* \"#utility.yul\":334:411   */\n      swap2\n      swap1\n      pop\n      jump\t// out\n        /* \"#utility.yul\":417:539   */\n    tag_106:\n        /* \"#utility.yul\":490:514   */\n      tag_162\n        /* \"#utility.yul\":508:513   */\n      dup2\n        /* \"#utility.yul\":490:514   */\n      tag_105\n      jump\t// in\n    tag_162:\n        /* \"#utility.yul\":483:488   */\n      dup2\n        /* \"#utility.yul\":480:515   */\n      eq\n        /* \"#utility.yul\":470:533   */\n      tag_163\n      jumpi\n        /* \"#utility.yul\":529:530   */\n      0x00\n        /* \"#utility.yul\":526:527   */\n      dup1\n        /* \"#utility.yul\":519:531   */\n      revert\n        /* \"#utility.yul\":470:533   */\n    tag_163:\n        /* \"#utility.yul\":417:539   */\n      pop\n      jump\t// out\n        /* \"#utility.yul\":545:684   */\n    tag_107:\n        /* \"#utility.yul\":591:596   */\n      0x00\n        /* \"#utility.yul\":629:635   */\n      dup2\n        /* \"#utility.yul\":616:636   */\n      calldataload\n        /* \"#utility.yul\":607:636   */\n      swap1\n      pop\n        /* \"#utility.yul\":645:678   */\n      tag_165\n        /* \"#utility.yul\":672:677   */\n      dup2\n        /* \"#utility.yul\":645:678   */\n      tag_106\n      jump\t// in\n    tag_165:\n        /* \"#utility.yul\":545:684   */\n      swap3\n      swap2\n      pop\n      pop\n      jump\t// out\n        /* \"#utility.yul\":690:1019   */\n    tag_11:\n        /* \"#utility.yul\":749:755   */\n      0x00\n        /* \"#utility.yul\":798:800   */\n      0x20\n        /* \"#utility.yul\":786:795   */\n      dup3\n        /* \"#utility.yul\":777:784   */\n      dup5\n        /* \"#utility.yul\":773:796   */\n      sub\n        /* \"#utility.yul\":769:801   */\n      slt\n        /* \"#utility.yul\":766:885   */\n      iszero\n      tag_167\n      jumpi\n        /* \"#utility.yul\":804:883   */\n      tag_168\n      tag_103\n      jump\t// in\n    tag_168:\n        /* \"#utility.yul\":766:885   */\n    tag_167:\n        /* \"#utility.yul\":924:925   */\n      0x00\n        /* \"#utility.yul\":949:1002   */\n      tag_169\n        /* \"#utility.yul\":994:1001   */\n      dup5\n        /* \"#utility.yul\":985:991   */\n      dup3\n        /* \"#utility.yul\":974:983   */\n      dup6\n        /* \"#utility.yul\":970:992   */\n      add\n        /* \"#utility.yul\":949:1002   */\n      tag_107\n      jump\t// in\n    tag_169:\n        /* \"#utility.yul\":939:1002   */\n      swap2\n      pop\n        /* \"#utility.yul\":895:1012   */\n      pop\n        /* \"#utility.yul\":690:1019   */\n      swap3\n      swap2\n      pop\n      pop\n      jump\t// out\n        /* \"#utility.yul\":1025:1143   */\n    tag_108:\n        /* \"#utility.yul\":1112:1136   */\n      tag_171\n        /* \"#utility.yul\":1130:1135   */\n      dup2\n        /* \"#utility.yul\":1112:1136   */\n      tag_105\n      jump\t// in\n    tag_171:\n        /* \"#utility.yul\":1107:1110   */\n      dup3\n        /* \"#utility.yul\":1100:1137   */\n      mstore\n        /* \"#utility.yul\":1025:1143   */\n      pop\n      pop\n      jump\t// out\n        /* \"#utility.yul\":1149:1371   */\n    tag_16:\n        /* \"#utility.yul\":1242:1246   */\n      0x00\n        /* \"#utility.yul\":1280:1282   */\n      0x20\n        /* \"#utility.yul\":1269:1278   */\n      dup3\n        /* \"#utility.yul\":1265:1283   */\n      add\n        /* \"#utility.yul\":1257:1283   */\n      swap1\n      pop\n        /* \"#utility.yul\":1293:1364   */\n      tag_173\n        /* \"#utility.yul\":1361:1362   */\n      0x00\n        /* \"#utility.yul\":1350:1359   */\n      dup4\n        /* \"#utility.yul\":1346:1363   */\n      add\n        /* \"#utility.yul\":1337:1343   */\n      dup5\n        /* \"#utility.yul\":1293:1364   */\n      tag_108\n      jump\t// in\n    tag_173:\n        /* \"#utility.yul\":1149:1371   */\n      swap3\n      swap2\n      pop\n      pop\n      jump\t// out\n        /* \"#utility.yul\":1377:1494   */\n    tag_109:\n        /* \"#utility.yul\":1486:1487   */\n      0x00\n        /* \"#utility.yul\":1483:1484   */\n      dup1\n        /* \"#utility.yul\":1476:1488   */\n      revert\n        /* \"#utility.yul\":1500:1617   */\n    tag_110:\n        /* \"#utility.yul\":1609:1610   */\n      0x00\n        /* \"#utility.yul\":1606:1607   */\n      dup1\n        /* \"#utility.yul\":1599:1611   */\n      revert\n        /* \"#utility.yul\":1623:1725   */\n    tag_111:\n        /* \"#utility.yul\":1664:1670   */\n      0x00\n        /* \"#utility.yul\":1715:1717   */\n      0x1f\n        /* \"#utility.yul\":1711:1718   */\n      not\n        /* \"#utility.yul\":1706:1708   */\n      0x1f\n        /* \"#utility.yul\":1699:1704   */\n      dup4\n        /* \"#utility.yul\":1695:1709   */\n      add\n        /* \"#utility.yul\":1691:1719   */\n      and\n        /* \"#utility.yul\":1681:1719   */\n      swap1\n      pop\n        /* \"#utility.yul\":1623:1725   */\n      swap2\n      swap1\n      pop\n      jump\t// out\n        /* \"#utility.yul\":1731:1911   */\n    tag_112:\n        /* \"#utility.yul\":1779:1856   */\n      0x4e487b7100000000000000000000000000000000000000000000000000000000\n        /* \"#utility.yul\":1776:1777   */\n      0x00\n        /* \"#utility.yul\":1769:1857   */\n      mstore\n        /* \"#utility.yul\":1876:1880   */\n      0x41\n        /* \"#utility.yul\":1873:1874   */\n      0x04\n        /* \"#utility.yul\":1866:1881   */\n      mstore\n        /* \"#utility.yul\":1900:1904   */\n      0x24\n        /* \"#utility.yul\":1897:1898   */\n      0x00\n        /* \"#utility.yul\":1890:1905   */\n      revert\n        /* \"#utility.yul\":1917:2198   */\n    tag_113:\n        /* \"#utility.yul\":2000:2027   */\n      tag_179\n        /* \"#utility.yul\":2022:2026   */\n      dup3\n        /* \"#utility.yul\":2000:2027   */\n      tag_111\n      jump\t// in\n    tag_179:\n        /* \"#utility.yul\":1992:1998   */\n      dup2\n        /* \"#utility.yul\":1988:2028   */\n      add\n        /* \"#utility.yul\":2130:2136   */\n      dup2\n        /* \"#utility.yul\":2118:2128   */\n      dup2\n        /* \"#utility.yul\":2115:2137   */\n      lt\n        /* \"#utility.yul\":2094:2112   */\n      0xffffffffffffffff\n        /* \"#utility.yul\":2082:2092   */\n      dup3\n        /* \"#utility.yul\":2079:2113   */\n      gt\n        /* \"#utility.yul\":2076:2138   */\n      or\n        /* \"#utility.yul\":2073:2161   */\n      iszero\n      tag_180\n      jumpi\n        /* \"#utility.yul\":2141:2159   */\n      tag_181\n      tag_112\n      jump\t// in\n    tag_181:\n        /* \"#utility.yul\":2073:2161   */\n    tag_180:\n        /* \"#utility.yul\":2181:2191   */\n      dup1\n        /* \"#utility.yul\":2177:2179   */\n      0x40\n        /* \"#utility.yul\":2170:2192   */\n      mstore\n        /* \"#utility.yul\":1960:2198   */\n      pop\n        /* \"#utility.yul\":1917:2198   */\n      pop\n      pop\n      jump\t// out\n        /* \"#utility.yul\":2204:2333   */\n    tag_114:\n        /* \"#utility.yul\":2238:2244   */\n      0x00\n        /* \"#utility.yul\":2265:2285   */\n      tag_183\n      tag_102\n      jump\t// in\n    tag_183:\n        /* \"#utility.yul\":2255:2285   */\n      swap1\n      pop\n        /* \"#utility.yul\":2294:2327   */\n      tag_184\n        /* \"#utility.yul\":2322:2326   */\n      dup3\n        /* \"#utility.yul\":2314:2320   */\n      dup3\n        /* \"#utility.yul\":2294:2327   */\n      tag_113\n      jump\t// in\n    tag_184:\n        /* \"#utility.yul\":2204:2333   */\n      swap2\n      swap1\n      pop\n      jump\t// out\n        /* \"#utility.yul\":2339:2647   */\n    tag_115:\n        /* \"#utility.yul\":2401:2405   */\n      0x00\n        /* \"#utility.yul\":2491:2509   */\n      0xffffffffffffffff\n        /* \"#utility.yul\":2483:2489   */\n      dup3\n        /* \"#utility.yul\":2480:2510   */\n      gt\n        /* \"#utility.yul\":2477:2533   */\n      iszero\n      tag_186\n      jumpi\n        /* \"#utility.yul\":2513:2531   */\n      tag_187\n      tag_112\n      jump\t// in\n    tag_187:\n        /* \"#utility.yul\":2477:2533   */\n    tag_186:\n        /* \"#utility.yul\":2551:2580   */\n      tag_188\n        /* \"#utility.yul\":2573:2579   */\n      dup3\n        /* \"#utility.yul\":2551:2580   */\n      tag_111\n      jump\t// in\n    tag_188:\n        /* \"#utility.yul\":2543:2580   */\n      swap1\n      pop\n        /* \"#utility.yul\":2635:2639   */\n      0x20\n        /* \"#utility.yul\":2629:2633   */\n      dup2\n        /* \"#utility.yul\":2625:2640   */\n      add\n        /* \"#utility.yul\":2617:2640   */\n      swap1\n      pop\n        /* \"#utility.yul\":2339:2647   */\n      swap2\n      swap1\n      pop\n      jump\t// out\n        /* \"#utility.yul\":2653:2799   */\n    tag_116:\n        /* \"#utility.yul\":2750:2756   */\n      dup3\n        /* \"#utility.yul\":2745:2748   */\n      dup2\n        /* \"#utility.yul\":2740:2743   */\n      dup4\n        /* \"#utility.yul\":2727:2757   */\n      calldatacopy\n        /* \"#utility.yul\":2791:2792   */\n      0x00\n        /* \"#utility.yul\":2782:2788   */\n      dup4\n        /* \"#utility.yul\":2777:2780   */\n      dup4\n        /* \"#utility.yul\":2773:2789   */\n      add\n        /* \"#utility.yul\":2766:2793   */\n      mstore\n        /* \"#utility.yul\":2653:2799   */\n      pop\n      pop\n      pop\n      jump\t// out\n        /* \"#utility.yul\":2805:3230   */\n    tag_117:\n        /* \"#utility.yul\":2883:2888   */\n      0x00\n        /* \"#utility.yul\":2908:2974   */\n      tag_191\n        /* \"#utility.yul\":2924:2973   */\n      tag_192\n        /* \"#utility.yul\":2966:2972   */\n      dup5\n        /* \"#utility.yul\":2924:2973   */\n      tag_115\n      jump\t// in\n    tag_192:\n        /* \"#utility.yul\":2908:2974   */\n      tag_114\n      jump\t// in\n    tag_191:\n        /* \"#utility.yul\":2899:2974   */\n      swap1\n      pop\n        /* \"#utility.yul\":2997:3003   */\n      dup3\n        /* \"#utility.yul\":2990:2995   */\n      dup2\n        /* \"#utility.yul\":2983:3004   */\n      mstore\n        /* \"#utility.yul\":3035:3039   */\n      0x20\n        /* \"#utility.yul\":3028:3033   */\n      dup2\n        /* \"#utility.yul\":3024:3040   */\n      add\n        /* \"#utility.yul\":3073:3076   */\n      dup5\n        /* \"#utility.yul\":3064:3070   */\n      dup5\n        /* \"#utility.yul\":3059:3062   */\n      dup5\n        /* \"#utility.yul\":3055:3071   */\n      add\n        /* \"#utility.yul\":3052:3077   */\n      gt\n        /* \"#utility.yul\":3049:3161   */\n      iszero\n      tag_193\n      jumpi\n        /* \"#utility.yul\":3080:3159   */\n      tag_194\n      tag_110\n      jump\t// in\n    tag_194:\n        /* \"#utility.yul\":3049:3161   */\n    tag_193:\n        /* \"#utility.yul\":3170:3224   */\n      tag_195\n        /* \"#utility.yul\":3217:3223   */\n      dup5\n        /* \"#utility.yul\":3212:3215   */\n      dup3\n        /* \"#utility.yul\":3207:3210   */\n      dup6\n        /* \"#utility.yul\":3170:3224   */\n      tag_116\n      jump\t// in\n    tag_195:\n        /* \"#utility.yul\":2889:3230   */\n      pop\n        /* \"#utility.yul\":2805:3230   */\n      swap4\n      swap3\n      pop\n      pop\n      pop\n      jump\t// out\n        /* \"#utility.yul\":3250:3590   */\n    tag_118:\n        /* \"#utility.yul\":3306:3311   */\n      0x00\n        /* \"#utility.yul\":3355:3358   */\n      dup3\n        /* \"#utility.yul\":3348:3352   */\n      0x1f\n        /* \"#utility.yul\":3340:3346   */\n      dup4\n        /* \"#utility.yul\":3336:3353   */\n      add\n        /* \"#utility.yul\":3332:3359   */\n      slt\n        /* \"#utility.yul\":3322:3444   */\n      tag_197\n      jumpi\n        /* \"#utility.yul\":3363:3442   */\n      tag_198\n      tag_109\n      jump\t// in\n    tag_198:\n        /* \"#utility.yul\":3322:3444   */\n    tag_197:\n        /* \"#utility.yul\":3480:3486   */\n      dup2\n        /* \"#utility.yul\":3467:3487   */\n      calldataload\n        /* \"#utility.yul\":3505:3584   */\n      tag_199\n        /* \"#utility.yul\":3580:3583   */\n      dup5\n        /* \"#utility.yul\":3572:3578   */\n      dup3\n        /* \"#utility.yul\":3565:3569   */\n      0x20\n        /* \"#utility.yul\":3557:3563   */\n      dup7\n        /* \"#utility.yul\":3553:3570   */\n      add\n        /* \"#utility.yul\":3505:3584   */\n      tag_117\n      jump\t// in\n    tag_199:\n        /* \"#utility.yul\":3496:3584   */\n      swap2\n      pop\n        /* \"#utility.yul\":3312:3590   */\n      pop\n        /* \"#utility.yul\":3250:3590   */\n      swap3\n      swap2\n      pop\n      pop\n      jump\t// out\n        /* \"#utility.yul\":3596:4575   */\n    tag_19:\n        /* \"#utility.yul\":3693:3699   */\n      0x00\n        /* \"#utility.yul\":3701:3707   */\n      dup1\n        /* \"#utility.yul\":3709:3715   */\n      0x00\n        /* \"#utility.yul\":3758:3760   */\n      0x60\n        /* \"#utility.yul\":3746:3755   */\n      dup5\n        /* \"#utility.yul\":3737:3744   */\n      dup7\n        /* \"#utility.yul\":3733:3756   */\n      sub\n        /* \"#utility.yul\":3729:3761   */\n      slt\n        /* \"#utility.yul\":3726:3845   */\n      iszero\n      tag_201\n      jumpi\n        /* \"#utility.yul\":3764:3843   */\n      tag_202\n      tag_103\n      jump\t// in\n    tag_202:\n        /* \"#utility.yul\":3726:3845   */\n    tag_201:\n        /* \"#utility.yul\":3912:3913   */\n      0x00\n        /* \"#utility.yul\":3901:3910   */\n      dup5\n        /* \"#utility.yul\":3897:3914   */\n      add\n        /* \"#utility.yul\":3884:3915   */\n      calldataload\n        /* \"#utility.yul\":3942:3960   */\n      0xffffffffffffffff\n        /* \"#utility.yul\":3934:3940   */\n      dup2\n        /* \"#utility.yul\":3931:3961   */\n      gt\n        /* \"#utility.yul\":3928:4045   */\n      iszero\n      tag_203\n      jumpi\n        /* \"#utility.yul\":3964:4043   */\n      tag_204\n      tag_104\n      jump\t// in\n    tag_204:\n        /* \"#utility.yul\":3928:4045   */\n    tag_203:\n        /* \"#utility.yul\":4069:4132   */\n      tag_205\n        /* \"#utility.yul\":4124:4131   */\n      dup7\n        /* \"#utility.yul\":4115:4121   */\n      dup3\n        /* \"#utility.yul\":4104:4113   */\n      dup8\n        /* \"#utility.yul\":4100:4122   */\n      add\n        /* \"#utility.yul\":4069:4132   */\n      tag_118\n      jump\t// in\n    tag_205:\n        /* \"#utility.yul\":4059:4132   */\n      swap4\n      pop\n        /* \"#utility.yul\":3855:4142   */\n      pop\n        /* \"#utility.yul\":4209:4211   */\n      0x20\n        /* \"#utility.yul\":4198:4207   */\n      dup5\n        /* \"#utility.yul\":4194:4212   */\n      add\n        /* \"#utility.yul\":4181:4213   */\n      calldataload\n        /* \"#utility.yul\":4240:4258   */\n      0xffffffffffffffff\n        /* \"#utility.yul\":4232:4238   */\n      dup2\n        /* \"#utility.yul\":4229:4259   */\n      gt\n        /* \"#utility.yul\":4226:4343   */\n      iszero\n      tag_206\n      jumpi\n        /* \"#utility.yul\":4262:4341   */\n      tag_207\n      tag_104\n      jump\t// in\n    tag_207:\n        /* \"#utility.yul\":4226:4343   */\n    tag_206:\n        /* \"#utility.yul\":4367:4430   */\n      tag_208\n        /* \"#utility.yul\":4422:4429   */\n      dup7\n        /* \"#utility.yul\":4413:4419   */\n      dup3\n        /* \"#utility.yul\":4402:4411   */\n      dup8\n        /* \"#utility.yul\":4398:4420   */\n      add\n        /* \"#utility.yul\":4367:4430   */\n      tag_118\n      jump\t// in\n    tag_208:\n        /* \"#utility.yul\":4357:4430   */\n      swap3\n      pop\n        /* \"#utility.yul\":4152:4440   */\n      pop\n        /* \"#utility.yul\":4479:4481   */\n      0x40\n        /* \"#utility.yul\":4505:4558   */\n      tag_209\n        /* \"#utility.yul\":4550:4557   */\n      dup7\n        /* \"#utility.yul\":4541:4547   */\n      dup3\n        /* \"#utility.yul\":4530:4539   */\n      dup8\n        /* \"#utility.yul\":4526:4548   */\n      add\n        /* \"#utility.yul\":4505:4558   */\n      tag_107\n      jump\t// in\n    tag_209:\n        /* \"#utility.yul\":4495:4558   */\n      swap2\n      pop\n        /* \"#utility.yul\":4450:4568   */\n      pop\n        /* \"#utility.yul\":3596:4575   */\n      swap3\n      pop\n      swap3\n      pop\n      swap3\n      jump\t// out\n        /* \"#utility.yul\":4581:4680   */\n    tag_119:\n        /* \"#utility.yul\":4633:4639   */\n      0x00\n        /* \"#utility.yul\":4667:4672   */\n      dup2\n        /* \"#utility.yul\":4661:4673   */\n      mload\n        /* \"#utility.yul\":4651:4673   */\n      swap1\n      pop\n        /* \"#utility.yul\":4581:4680   */\n      swap2\n      swap1\n      pop\n      jump\t// out\n        /* \"#utility.yul\":4686:4855   */\n    tag_120:\n        /* \"#utility.yul\":4770:4781   */\n      0x00\n        /* \"#utility.yul\":4804:4810   */\n      dup3\n        /* \"#utility.yul\":4799:4802   */\n      dup3\n        /* \"#utility.yul\":4792:4811   */\n      mstore\n        /* \"#utility.yul\":4844:4848   */\n      0x20\n        /* \"#utility.yul\":4839:4842   */\n      dup3\n        /* \"#utility.yul\":4835:4849   */\n      add\n        /* \"#utility.yul\":4820:4849   */\n      swap1\n      pop\n        /* \"#utility.yul\":4686:4855   */\n      swap3\n      swap2\n      pop\n      pop\n      jump\t// out\n        /* \"#utility.yul\":4861:5107   */\n    tag_121:\n        /* \"#utility.yul\":4942:4943   */\n      0x00\n        /* \"#utility.yul\":4952:5065   */\n    tag_213:\n        /* \"#utility.yul\":4966:4972   */\n      dup4\n        /* \"#utility.yul\":4963:4964   */\n      dup2\n        /* \"#utility.yul\":4960:4973   */\n      lt\n        /* \"#utility.yul\":4952:5065   */\n      iszero\n      tag_215\n      jumpi\n        /* \"#utility.yul\":5051:5052   */\n      dup1\n        /* \"#utility.yul\":5046:5049   */\n      dup3\n        /* \"#utility.yul\":5042:5053   */\n      add\n        /* \"#utility.yul\":5036:5054   */\n      mload\n        /* \"#utility.yul\":5032:5033   */\n      dup2\n        /* \"#utility.yul\":5027:5030   */\n      dup5\n        /* \"#utility.yul\":5023:5034   */\n      add\n        /* \"#utility.yul\":5016:5055   */\n      mstore\n        /* \"#utility.yul\":4988:4990   */\n      0x20\n        /* \"#utility.yul\":4985:4986   */\n      dup2\n        /* \"#utility.yul\":4981:4991   */\n      add\n        /* \"#utility.yul\":4976:4991   */\n      swap1\n      pop\n        /* \"#utility.yul\":4952:5065   */\n      jump(tag_213)\n    tag_215:\n        /* \"#utility.yul\":5099:5100   */\n      0x00\n        /* \"#utility.yul\":5090:5096   */\n      dup5\n        /* \"#utility.yul\":5085:5088   */\n      dup5\n        /* \"#utility.yul\":5081:5097   */\n      add\n        /* \"#utility.yul\":5074:5101   */\n      mstore\n        /* \"#utility.yul\":4923:5107   */\n      pop\n        /* \"#utility.yul\":4861:5107   */\n      pop\n      pop\n      pop\n      jump\t// out\n        /* \"#utility.yul\":5113:5490   */\n    tag_122:\n        /* \"#utility.yul\":5201:5204   */\n      0x00\n        /* \"#utility.yul\":5229:5268   */\n      tag_217\n        /* \"#utility.yul\":5262:5267   */\n      dup3\n        /* \"#utility.yul\":5229:5268   */\n      tag_119\n      jump\t// in\n    tag_217:\n        /* \"#utility.yul\":5284:5355   */\n      tag_218\n        /* \"#utility.yul\":5348:5354   */\n      dup2\n        /* \"#utility.yul\":5343:5346   */\n      dup6\n        /* \"#utility.yul\":5284:5355   */\n      tag_120\n      jump\t// in\n    tag_218:\n        /* \"#utility.yul\":5277:5355   */\n      swap4\n      pop\n        /* \"#utility.yul\":5364:5429   */\n      tag_219\n        /* \"#utility.yul\":5422:5428   */\n      dup2\n        /* \"#utility.yul\":5417:5420   */\n      dup6\n        /* \"#utility.yul\":5410:5414   */\n      0x20\n        /* \"#utility.yul\":5403:5408   */\n      dup7\n        /* \"#utility.yul\":5399:5415   */\n      add\n        /* \"#utility.yul\":5364:5429   */\n      tag_121\n      jump\t// in\n    tag_219:\n        /* \"#utility.yul\":5454:5483   */\n      tag_220\n        /* \"#utility.yul\":5476:5482   */\n      dup2\n        /* \"#utility.yul\":5454:5483   */\n      tag_111\n      jump\t// in\n    tag_220:\n        /* \"#utility.yul\":5449:5452   */\n      dup5\n        /* \"#utility.yul\":5445:5484   */\n      add\n        /* \"#utility.yul\":5438:5484   */\n      swap2\n      pop\n        /* \"#utility.yul\":5205:5490   */\n      pop\n        /* \"#utility.yul\":5113:5490   */\n      swap3\n      swap2\n      pop\n      pop\n      jump\t// out\n        /* \"#utility.yul\":5496:6342   */\n    tag_25:\n        /* \"#utility.yul\":5741:5745   */\n      0x00\n        /* \"#utility.yul\":5779:5782   */\n      0xa0\n        /* \"#utility.yul\":5768:5777   */\n      dup3\n        /* \"#utility.yul\":5764:5783   */\n      add\n        /* \"#utility.yul\":5756:5783   */\n      swap1\n      pop\n        /* \"#utility.yul\":5829:5838   */\n      dup2\n        /* \"#utility.yul\":5823:5827   */\n      dup2\n        /* \"#utility.yul\":5819:5839   */\n      sub\n        /* \"#utility.yul\":5815:5816   */\n      0x00\n        /* \"#utility.yul\":5804:5813   */\n      dup4\n        /* \"#utility.yul\":5800:5817   */\n      add\n        /* \"#utility.yul\":5793:5840   */\n      mstore\n        /* \"#utility.yul\":5857:5935   */\n      tag_222\n        /* \"#utility.yul\":5930:5934   */\n      dup2\n        /* \"#utility.yul\":5921:5927   */\n      dup9\n        /* \"#utility.yul\":5857:5935   */\n      tag_122\n      jump\t// in\n    tag_222:\n        /* \"#utility.yul\":5849:5935   */\n      swap1\n      pop\n        /* \"#utility.yul\":5945:6017   */\n      tag_223\n        /* \"#utility.yul\":6013:6015   */\n      0x20\n        /* \"#utility.yul\":6002:6011   */\n      dup4\n        /* \"#utility.yul\":5998:6016   */\n      add\n        /* \"#utility.yul\":5989:5995   */\n      dup8\n        /* \"#utility.yul\":5945:6017   */\n      tag_108\n      jump\t// in\n    tag_223:\n        /* \"#utility.yul\":6064:6073   */\n      dup2\n        /* \"#utility.yul\":6058:6062   */\n      dup2\n        /* \"#utility.yul\":6054:6074   */\n      sub\n        /* \"#utility.yul\":6049:6051   */\n      0x40\n        /* \"#utility.yul\":6038:6047   */\n      dup4\n        /* \"#utility.yul\":6034:6052   */\n      add\n        /* \"#utility.yul\":6027:6075   */\n      mstore\n        /* \"#utility.yul\":6092:6170   */\n      tag_224\n        /* \"#utility.yul\":6165:6169   */\n      dup2\n        /* \"#utility.yul\":6156:6162   */\n      dup7\n        /* \"#utility.yul\":6092:6170   */\n      tag_122\n      jump\t// in\n    tag_224:\n        /* \"#utility.yul\":6084:6170   */\n      swap1\n      pop\n        /* \"#utility.yul\":6180:6252   */\n      tag_225\n        /* \"#utility.yul\":6248:6250   */\n      0x60\n        /* \"#utility.yul\":6237:6246   */\n      dup4\n        /* \"#utility.yul\":6233:6251   */\n      add\n        /* \"#utility.yul\":6224:6230   */\n      dup6\n        /* \"#utility.yul\":6180:6252   */\n      tag_108\n      jump\t// in\n    tag_225:\n        /* \"#utility.yul\":6262:6335   */\n      tag_226\n        /* \"#utility.yul\":6330:6333   */\n      0x80\n        /* \"#utility.yul\":6319:6328   */\n      dup4\n        /* \"#utility.yul\":6315:6334   */\n      add\n        /* \"#utility.yul\":6306:6312   */\n      dup5\n        /* \"#utility.yul\":6262:6335   */\n      tag_108\n      jump\t// in\n    tag_226:\n        /* \"#utility.yul\":5496:6342   */\n      swap7\n      swap6\n      pop\n      pop\n      pop\n      pop\n      pop\n      pop\n      jump\t// out\n        /* \"#utility.yul\":6348:6474   */\n    tag_123:\n        /* \"#utility.yul\":6385:6392   */\n      0x00\n        /* \"#utility.yul\":6425:6467   */\n      0xffffffffffffffffffffffffffffffffffffffff\n        /* \"#utility.yul\":6418:6423   */\n      dup3\n        /* \"#utility.yul\":6414:6468   */\n      and\n        /* \"#utility.yul\":6403:6468   */\n      swap1\n      pop\n        /* \"#utility.yul\":6348:6474   */\n      swap2\n      swap1\n      pop\n      jump\t// out\n        /* \"#utility.yul\":6480:6576   */\n    tag_124:\n        /* \"#utility.yul\":6517:6524   */\n      0x00\n        /* \"#utility.yul\":6546:6570   */\n      tag_229\n        /* \"#utility.yul\":6564:6569   */\n      dup3\n        /* \"#utility.yul\":6546:6570   */\n      tag_123\n      jump\t// in\n    tag_229:\n        /* \"#utility.yul\":6535:6570   */\n      swap1\n      pop\n        /* \"#utility.yul\":6480:6576   */\n      swap2\n      swap1\n      pop\n      jump\t// out\n        /* \"#utility.yul\":6582:6704   */\n    tag_125:\n        /* \"#utility.yul\":6655:6679   */\n      tag_231\n        /* \"#utility.yul\":6673:6678   */\n      dup2\n        /* \"#utility.yul\":6655:6679   */\n      tag_124\n      jump\t// in\n    tag_231:\n        /* \"#utility.yul\":6648:6653   */\n      dup2\n        /* \"#utility.yul\":6645:6680   */\n      eq\n        /* \"#utility.yul\":6635:6698   */\n      tag_232\n      jumpi\n        /* \"#utility.yul\":6694:6695   */\n      0x00\n        /* \"#utility.yul\":6691:6692   */\n      dup1\n        /* \"#utility.yul\":6684:6696   */\n      revert\n        /* \"#utility.yul\":6635:6698   */\n    tag_232:\n        /* \"#utility.yul\":6582:6704   */\n      pop\n      jump\t// out\n        /* \"#utility.yul\":6710:6849   */\n    tag_126:\n        /* \"#utility.yul\":6756:6761   */\n      0x00\n        /* \"#utility.yul\":6794:6800   */\n      dup2\n        /* \"#utility.yul\":6781:6801   */\n      calldataload\n        /* \"#utility.yul\":6772:6801   */\n      swap1\n      pop\n        /* \"#utility.yul\":6810:6843   */\n      tag_234\n        /* \"#utility.yul\":6837:6842   */\n      dup2\n        /* \"#utility.yul\":6810:6843   */\n      tag_125\n      jump\t// in\n    tag_234:\n        /* \"#utility.yul\":6710:6849   */\n      swap3\n      swap2\n      pop\n      pop\n      jump\t// out\n        /* \"#utility.yul\":6855:7329   */\n    tag_28:\n        /* \"#utility.yul\":6923:6929   */\n      0x00\n        /* \"#utility.yul\":6931:6937   */\n      dup1\n        /* \"#utility.yul\":6980:6982   */\n      0x40\n        /* \"#utility.yul\":6968:6977   */\n      dup4\n        /* \"#utility.yul\":6959:6966   */\n      dup6\n        /* \"#utility.yul\":6955:6978   */\n      sub\n        /* \"#utility.yul\":6951:6983   */\n      slt\n        /* \"#utility.yul\":6948:7067   */\n      iszero\n      tag_236\n      jumpi\n        /* \"#utility.yul\":6986:7065   */\n      tag_237\n      tag_103\n      jump\t// in\n    tag_237:\n        /* \"#utility.yul\":6948:7067   */\n    tag_236:\n        /* \"#utility.yul\":7106:7107   */\n      0x00\n        /* \"#utility.yul\":7131:7184   */\n      tag_238\n        /* \"#utility.yul\":7176:7183   */\n      dup6\n        /* \"#utility.yul\":7167:7173   */\n      dup3\n        /* \"#utility.yul\":7156:7165   */\n      dup7\n        /* \"#utility.yul\":7152:7174   */\n      add\n        /* \"#utility.yul\":7131:7184   */\n      tag_107\n      jump\t// in\n    tag_238:\n        /* \"#utility.yul\":7121:7184   */\n      swap3\n      pop\n        /* \"#utility.yul\":7077:7194   */\n      pop\n        /* \"#utility.yul\":7233:7235   */\n      0x20\n        /* \"#utility.yul\":7259:7312   */\n      tag_239\n        /* \"#utility.yul\":7304:7311   */\n      dup6\n        /* \"#utility.yul\":7295:7301   */\n      dup3\n        /* \"#utility.yul\":7284:7293   */\n      dup7\n        /* \"#utility.yul\":7280:7302   */\n      add\n        /* \"#utility.yul\":7259:7312   */\n      tag_126\n      jump\t// in\n    tag_239:\n        /* \"#utility.yul\":7249:7312   */\n      swap2\n      pop\n        /* \"#utility.yul\":7204:7322   */\n      pop\n        /* \"#utility.yul\":6855:7329   */\n      swap3\n      pop\n      swap3\n      swap1\n      pop\n      jump\t// out\n        /* \"#utility.yul\":7335:7667   */\n    tag_31:\n        /* \"#utility.yul\":7456:7460   */\n      0x00\n        /* \"#utility.yul\":7494:7496   */\n      0x40\n        /* \"#utility.yul\":7483:7492   */\n      dup3\n        /* \"#utility.yul\":7479:7497   */\n      add\n        /* \"#utility.yul\":7471:7497   */\n      swap1\n      pop\n        /* \"#utility.yul\":7507:7578   */\n      tag_241\n        /* \"#utility.yul\":7575:7576   */\n      0x00\n        /* \"#utility.yul\":7564:7573   */\n      dup4\n        /* \"#utility.yul\":7560:7577   */\n      add\n        /* \"#utility.yul\":7551:7557   */\n      dup6\n        /* \"#utility.yul\":7507:7578   */\n      tag_108\n      jump\t// in\n    tag_241:\n        /* \"#utility.yul\":7588:7660   */\n      tag_242\n        /* \"#utility.yul\":7656:7658   */\n      0x20\n        /* \"#utility.yul\":7645:7654   */\n      dup4\n        /* \"#utility.yul\":7641:7659   */\n      add\n        /* \"#utility.yul\":7632:7638   */\n      dup5\n        /* \"#utility.yul\":7588:7660   */\n      tag_108\n      jump\t// in\n    tag_242:\n        /* \"#utility.yul\":7335:7667   */\n      swap4\n      swap3\n      pop\n      pop\n      pop\n      jump\t// out\n        /* \"#utility.yul\":7673:7832   */\n    tag_127:\n        /* \"#utility.yul\":7747:7758   */\n      0x00\n        /* \"#utility.yul\":7781:7787   */\n      dup3\n        /* \"#utility.yul\":7776:7779   */\n      dup3\n        /* \"#utility.yul\":7769:7788   */\n      mstore\n        /* \"#utility.yul\":7821:7825   */\n      0x20\n        /* \"#utility.yul\":7816:7819   */\n      dup3\n        /* \"#utility.yul\":7812:7826   */\n      add\n        /* \"#utility.yul\":7797:7826   */\n      swap1\n      pop\n        /* \"#utility.yul\":7673:7832   */\n      swap3\n      swap2\n      pop\n      pop\n      jump\t// out\n        /* \"#utility.yul\":7838:8195   */\n    tag_128:\n        /* \"#utility.yul\":7916:7919   */\n      0x00\n        /* \"#utility.yul\":7944:7983   */\n      tag_245\n        /* \"#utility.yul\":7977:7982   */\n      dup3\n        /* \"#utility.yul\":7944:7983   */\n      tag_119\n      jump\t// in\n    tag_245:\n        /* \"#utility.yul\":7999:8060   */\n      tag_246\n        /* \"#utility.yul\":8053:8059   */\n      dup2\n        /* \"#utility.yul\":8048:8051   */\n      dup6\n        /* \"#utility.yul\":7999:8060   */\n      tag_127\n      jump\t// in\n    tag_246:\n        /* \"#utility.yul\":7992:8060   */\n      swap4\n      pop\n        /* \"#utility.yul\":8069:8134   */\n      tag_247\n        /* \"#utility.yul\":8127:8133   */\n      dup2\n        /* \"#utility.yul\":8122:8125   */\n      dup6\n        /* \"#utility.yul\":8115:8119   */\n      0x20\n        /* \"#utility.yul\":8108:8113   */\n      dup7\n        /* \"#utility.yul\":8104:8120   */\n      add\n        /* \"#utility.yul\":8069:8134   */\n      tag_121\n      jump\t// in\n    tag_247:\n        /* \"#utility.yul\":8159:8188   */\n      tag_248\n        /* \"#utility.yul\":8181:8187   */\n      dup2\n        /* \"#utility.yul\":8159:8188   */\n      tag_111\n      jump\t// in\n    tag_248:\n        /* \"#utility.yul\":8154:8157   */\n      dup5\n        /* \"#utility.yul\":8150:8189   */\n      add\n        /* \"#utility.yul\":8143:8189   */\n      swap2\n      pop\n        /* \"#utility.yul\":7920:8195   */\n      pop\n        /* \"#utility.yul\":7838:8195   */\n      swap3\n      swap2\n      pop\n      pop\n      jump\t// out\n        /* \"#utility.yul\":8201:8309   */\n    tag_129:\n        /* \"#utility.yul\":8278:8302   */\n      tag_250\n        /* \"#utility.yul\":8296:8301   */\n      dup2\n        /* \"#utility.yul\":8278:8302   */\n      tag_105\n      jump\t// in\n    tag_250:\n        /* \"#utility.yul\":8273:8276   */\n      dup3\n        /* \"#utility.yul\":8266:8303   */\n      mstore\n        /* \"#utility.yul\":8201:8309   */\n      pop\n      pop\n      jump\t// out\n        /* \"#utility.yul\":8353:9559   */\n    tag_130:\n        /* \"#utility.yul\":8466:8469   */\n      0x00\n        /* \"#utility.yul\":8502:8506   */\n      0xa0\n        /* \"#utility.yul\":8497:8500   */\n      dup4\n        /* \"#utility.yul\":8493:8507   */\n      add\n        /* \"#utility.yul\":8592:8596   */\n      0x00\n        /* \"#utility.yul\":8585:8590   */\n      dup4\n        /* \"#utility.yul\":8581:8597   */\n      add\n        /* \"#utility.yul\":8575:8598   */\n      mload\n        /* \"#utility.yul\":8645:8648   */\n      dup5\n        /* \"#utility.yul\":8639:8643   */\n      dup3\n        /* \"#utility.yul\":8635:8649   */\n      sub\n        /* \"#utility.yul\":8628:8632   */\n      0x00\n        /* \"#utility.yul\":8623:8626   */\n      dup7\n        /* \"#utility.yul\":8619:8633   */\n      add\n        /* \"#utility.yul\":8612:8650   */\n      mstore\n        /* \"#utility.yul\":8671:8744   */\n      tag_252\n        /* \"#utility.yul\":8739:8743   */\n      dup3\n        /* \"#utility.yul\":8725:8737   */\n      dup3\n        /* \"#utility.yul\":8671:8744   */\n      tag_128\n      jump\t// in\n    tag_252:\n        /* \"#utility.yul\":8663:8744   */\n      swap2\n      pop\n        /* \"#utility.yul\":8517:8755   */\n      pop\n        /* \"#utility.yul\":8839:8843   */\n      0x20\n        /* \"#utility.yul\":8832:8837   */\n      dup4\n        /* \"#utility.yul\":8828:8844   */\n      add\n        /* \"#utility.yul\":8822:8845   */\n      mload\n        /* \"#utility.yul\":8858:8921   */\n      tag_253\n        /* \"#utility.yul\":8915:8919   */\n      0x20\n        /* \"#utility.yul\":8910:8913   */\n      dup7\n        /* \"#utility.yul\":8906:8920   */\n      add\n        /* \"#utility.yul\":8892:8904   */\n      dup3\n        /* \"#utility.yul\":8858:8921   */\n      tag_129\n      jump\t// in\n    tag_253:\n        /* \"#utility.yul\":8765:8931   */\n      pop\n        /* \"#utility.yul\":9016:9020   */\n      0x40\n        /* \"#utility.yul\":9009:9014   */\n      dup4\n        /* \"#utility.yul\":9005:9021   */\n      add\n        /* \"#utility.yul\":8999:9022   */\n      mload\n        /* \"#utility.yul\":9069:9072   */\n      dup5\n        /* \"#utility.yul\":9063:9067   */\n      dup3\n        /* \"#utility.yul\":9059:9073   */\n      sub\n        /* \"#utility.yul\":9052:9056   */\n      0x40\n        /* \"#utility.yul\":9047:9050   */\n      dup7\n        /* \"#utility.yul\":9043:9057   */\n      add\n        /* \"#utility.yul\":9036:9074   */\n      mstore\n        /* \"#utility.yul\":9095:9168   */\n      tag_254\n        /* \"#utility.yul\":9163:9167   */\n      dup3\n        /* \"#utility.yul\":9149:9161   */\n      dup3\n        /* \"#utility.yul\":9095:9168   */\n      tag_128\n      jump\t// in\n    tag_254:\n        /* \"#utility.yul\":9087:9168   */\n      swap2\n      pop\n        /* \"#utility.yul\":8941:9179   */\n      pop\n        /* \"#utility.yul\":9263:9267   */\n      0x60\n        /* \"#utility.yul\":9256:9261   */\n      dup4\n        /* \"#utility.yul\":9252:9268   */\n      add\n        /* \"#utility.yul\":9246:9269   */\n      mload\n        /* \"#utility.yul\":9282:9345   */\n      tag_255\n        /* \"#utility.yul\":9339:9343   */\n      0x60\n        /* \"#utility.yul\":9334:9337   */\n      dup7\n        /* \"#utility.yul\":9330:9344   */\n      add\n        /* \"#utility.yul\":9316:9328   */\n      dup3\n        /* \"#utility.yul\":9282:9345   */\n      tag_129\n      jump\t// in\n    tag_255:\n        /* \"#utility.yul\":9189:9355   */\n      pop\n        /* \"#utility.yul\":9440:9444   */\n      0x80\n        /* \"#utility.yul\":9433:9438   */\n      dup4\n        /* \"#utility.yul\":9429:9445   */\n      add\n        /* \"#utility.yul\":9423:9446   */\n      mload\n        /* \"#utility.yul\":9459:9522   */\n      tag_256\n        /* \"#utility.yul\":9516:9520   */\n      0x80\n        /* \"#utility.yul\":9511:9514   */\n      dup7\n        /* \"#utility.yul\":9507:9521   */\n      add\n        /* \"#utility.yul\":9493:9505   */\n      dup3\n        /* \"#utility.yul\":9459:9522   */\n      tag_129\n      jump\t// in\n    tag_256:\n        /* \"#utility.yul\":9365:9532   */\n      pop\n        /* \"#utility.yul\":9549:9553   */\n      dup1\n        /* \"#utility.yul\":9542:9553   */\n      swap2\n      pop\n        /* \"#utility.yul\":8471:9559   */\n      pop\n        /* \"#utility.yul\":8353:9559   */\n      swap3\n      swap2\n      pop\n      pop\n      jump\t// out\n        /* \"#utility.yul\":9565:9926   */\n    tag_35:\n        /* \"#utility.yul\":9702:9706   */\n      0x00\n        /* \"#utility.yul\":9740:9742   */\n      0x20\n        /* \"#utility.yul\":9729:9738   */\n      dup3\n        /* \"#utility.yul\":9725:9743   */\n      add\n        /* \"#utility.yul\":9717:9743   */\n      swap1\n      pop\n        /* \"#utility.yul\":9789:9798   */\n      dup2\n        /* \"#utility.yul\":9783:9787   */\n      dup2\n        /* \"#utility.yul\":9779:9799   */\n      sub\n        /* \"#utility.yul\":9775:9776   */\n      0x00\n        /* \"#utility.yul\":9764:9773   */\n      dup4\n        /* \"#utility.yul\":9760:9777   */\n      add\n        /* \"#utility.yul\":9753:9800   */\n      mstore\n        /* \"#utility.yul\":9817:9919   */\n      tag_258\n        /* \"#utility.yul\":9914:9918   */\n      dup2\n        /* \"#utility.yul\":9905:9911   */\n      dup5\n        /* \"#utility.yul\":9817:9919   */\n      tag_130\n      jump\t// in\n    tag_258:\n        /* \"#utility.yul\":9809:9919   */\n      swap1\n      pop\n        /* \"#utility.yul\":9565:9926   */\n      swap3\n      swap2\n      pop\n      pop\n      jump\t// out\n        /* \"#utility.yul\":9932:10096   */\n    tag_131:\n        /* \"#utility.yul\":10072:10088   */\n      0x496e76616c69642063686f696365000000000000000000000000000000000000\n        /* \"#utility.yul\":10068:10069   */\n      0x00\n        /* \"#utility.yul\":10060:10066   */\n      dup3\n        /* \"#utility.yul\":10056:10070   */\n      add\n        /* \"#utility.yul\":10049:10089   */\n      mstore\n        /* \"#utility.yul\":9932:10096   */\n      pop\n      jump\t// out\n        /* \"#utility.yul\":10102:10468   */\n    tag_132:\n        /* \"#utility.yul\":10244:10247   */\n      0x00\n        /* \"#utility.yul\":10265:10332   */\n      tag_261\n        /* \"#utility.yul\":10329:10331   */\n      0x0e\n        /* \"#utility.yul\":10324:10327   */\n      dup4\n        /* \"#utility.yul\":10265:10332   */\n      tag_120\n      jump\t// in\n    tag_261:\n        /* \"#utility.yul\":10258:10332   */\n      swap2\n      pop\n        /* \"#utility.yul\":10341:10434   */\n      tag_262\n        /* \"#utility.yul\":10430:10433   */\n      dup3\n        /* \"#utility.yul\":10341:10434   */\n      tag_131\n      jump\t// in\n    tag_262:\n        /* \"#utility.yul\":10459:10461   */\n      0x20\n        /* \"#utility.yul\":10454:10457   */\n      dup3\n        /* \"#utility.yul\":10450:10462   */\n      add\n        /* \"#utility.yul\":10443:10462   */\n      swap1\n      pop\n        /* \"#utility.yul\":10102:10468   */\n      swap2\n      swap1\n      pop\n      jump\t// out\n        /* \"#utility.yul\":10474:10893   */\n    tag_40:\n        /* \"#utility.yul\":10640:10644   */\n      0x00\n        /* \"#utility.yul\":10678:10680   */\n      0x20\n        /* \"#utility.yul\":10667:10676   */\n      dup3\n        /* \"#utility.yul\":10663:10681   */\n      add\n        /* \"#utility.yul\":10655:10681   */\n      swap1\n      pop\n        /* \"#utility.yul\":10727:10736   */\n      dup2\n        /* \"#utility.yul\":10721:10725   */\n      dup2\n        /* \"#utility.yul\":10717:10737   */\n      sub\n        /* \"#utility.yul\":10713:10714   */\n      0x00\n        /* \"#utility.yul\":10702:10711   */\n      dup4\n        /* \"#utility.yul\":10698:10715   */\n      add\n        /* \"#utility.yul\":10691:10738   */\n      mstore\n        /* \"#utility.yul\":10755:10886   */\n      tag_264\n        /* \"#utility.yul\":10881:10885   */\n      dup2\n        /* \"#utility.yul\":10755:10886   */\n      tag_132\n      jump\t// in\n    tag_264:\n        /* \"#utility.yul\":10747:10886   */\n      swap1\n      pop\n        /* \"#utility.yul\":10474:10893   */\n      swap2\n      swap1\n      pop\n      jump\t// out\n        /* \"#utility.yul\":10899:11063   */\n    tag_133:\n        /* \"#utility.yul\":11039:11055   */\n      0x4e6f206f70656e20766f74696e67000000000000000000000000000000000000\n        /* \"#utility.yul\":11035:11036   */\n      0x00\n        /* \"#utility.yul\":11027:11033   */\n      dup3\n        /* \"#utility.yul\":11023:11037   */\n      add\n        /* \"#utility.yul\":11016:11056   */\n      mstore\n        /* \"#utility.yul\":10899:11063   */\n      pop\n      jump\t// out\n        /* \"#utility.yul\":11069:11435   */\n    tag_134:\n        /* \"#utility.yul\":11211:11214   */\n      0x00\n        /* \"#utility.yul\":11232:11299   */\n      tag_267\n        /* \"#utility.yul\":11296:11298   */\n      0x0e\n        /* \"#utility.yul\":11291:11294   */\n      dup4\n        /* \"#utility.yul\":11232:11299   */\n      tag_120\n      jump\t// in\n    tag_267:\n        /* \"#utility.yul\":11225:11299   */\n      swap2\n      pop\n        /* \"#utility.yul\":11308:11401   */\n      tag_268\n        /* \"#utility.yul\":11397:11400   */\n      dup3\n        /* \"#utility.yul\":11308:11401   */\n      tag_133\n      jump\t// in\n    tag_268:\n        /* \"#utility.yul\":11426:11428   */\n      0x20\n        /* \"#utility.yul\":11421:11424   */\n      dup3\n        /* \"#utility.yul\":11417:11429   */\n      add\n        /* \"#utility.yul\":11410:11429   */\n      swap1\n      pop\n        /* \"#utility.yul\":11069:11435   */\n      swap2\n      swap1\n      pop\n      jump\t// out\n        /* \"#utility.yul\":11441:11860   */\n    tag_44:\n        /* \"#utility.yul\":11607:11611   */\n      0x00\n        /* \"#utility.yul\":11645:11647   */\n      0x20\n        /* \"#utility.yul\":11634:11643   */\n      dup3\n        /* \"#utility.yul\":11630:11648   */\n      add\n        /* \"#utility.yul\":11622:11648   */\n      swap1\n      pop\n        /* \"#utility.yul\":11694:11703   */\n      dup2\n        /* \"#utility.yul\":11688:11692   */\n      dup2\n        /* \"#utility.yul\":11684:11704   */\n      sub\n        /* \"#utility.yul\":11680:11681   */\n      0x00\n        /* \"#utility.yul\":11669:11678   */\n      dup4\n        /* \"#utility.yul\":11665:11682   */\n      add\n        /* \"#utility.yul\":11658:11705   */\n      mstore\n        /* \"#utility.yul\":11722:11853   */\n      tag_270\n        /* \"#utility.yul\":11848:11852   */\n      dup2\n        /* \"#utility.yul\":11722:11853   */\n      tag_134\n      jump\t// in\n    tag_270:\n        /* \"#utility.yul\":11714:11853   */\n      swap1\n      pop\n        /* \"#utility.yul\":11441:11860   */\n      swap2\n      swap1\n      pop\n      jump\t// out\n        /* \"#utility.yul\":11866:12048   */\n    tag_135:\n        /* \"#utility.yul\":12006:12040   */\n      0x596f7520616c726561647920766f746564206f6e207468697320766f74696e67\n        /* \"#utility.yul\":12002:12003   */\n      0x00\n        /* \"#utility.yul\":11994:12000   */\n      dup3\n        /* \"#utility.yul\":11990:12004   */\n      add\n        /* \"#utility.yul\":11983:12041   */\n      mstore\n        /* \"#utility.yul\":11866:12048   */\n      pop\n      jump\t// out\n        /* \"#utility.yul\":12054:12420   */\n    tag_136:\n        /* \"#utility.yul\":12196:12199   */\n      0x00\n        /* \"#utility.yul\":12217:12284   */\n      tag_273\n        /* \"#utility.yul\":12281:12283   */\n      0x20\n        /* \"#utility.yul\":12276:12279   */\n      dup4\n        /* \"#utility.yul\":12217:12284   */\n      tag_120\n      jump\t// in\n    tag_273:\n        /* \"#utility.yul\":12210:12284   */\n      swap2\n      pop\n        /* \"#utility.yul\":12293:12386   */\n      tag_274\n        /* \"#utility.yul\":12382:12385   */\n      dup3\n        /* \"#utility.yul\":12293:12386   */\n      tag_135\n      jump\t// in\n    tag_274:\n        /* \"#utility.yul\":12411:12413   */\n      0x20\n        /* \"#utility.yul\":12406:12409   */\n      dup3\n        /* \"#utility.yul\":12402:12414   */\n      add\n        /* \"#utility.yul\":12395:12414   */\n      swap1\n      pop\n        /* \"#utility.yul\":12054:12420   */\n      swap2\n      swap1\n      pop\n      jump\t// out\n        /* \"#utility.yul\":12426:12845   */\n    tag_47:\n        /* \"#utility.yul\":12592:12596   */\n      0x00\n        /* \"#utility.yul\":12630:12632   */\n      0x20\n        /* \"#utility.yul\":12619:12628   */\n      dup3\n        /* \"#utility.yul\":12615:12633   */\n      add\n        /* \"#utility.yul\":12607:12633   */\n      swap1\n      pop\n        /* \"#utility.yul\":12679:12688   */\n      dup2\n        /* \"#utility.yul\":12673:12677   */\n      dup2\n        /* \"#utility.yul\":12669:12689   */\n      sub\n        /* \"#utility.yul\":12665:12666   */\n      0x00\n        /* \"#utility.yul\":12654:12663   */\n      dup4\n        /* \"#utility.yul\":12650:12667   */\n      add\n        /* \"#utility.yul\":12643:12690   */\n      mstore\n        /* \"#utility.yul\":12707:12838   */\n      tag_276\n        /* \"#utility.yul\":12833:12837   */\n      dup2\n        /* \"#utility.yul\":12707:12838   */\n      tag_136\n      jump\t// in\n    tag_276:\n        /* \"#utility.yul\":12699:12838   */\n      swap1\n      pop\n        /* \"#utility.yul\":12426:12845   */\n      swap2\n      swap1\n      pop\n      jump\t// out\n        /* \"#utility.yul\":12851:13031   */\n    tag_51:\n        /* \"#utility.yul\":12899:12976   */\n      0x4e487b7100000000000000000000000000000000000000000000000000000000\n        /* \"#utility.yul\":12896:12897   */\n      0x00\n        /* \"#utility.yul\":12889:12977   */\n      mstore\n        /* \"#utility.yul\":12996:13000   */\n      0x32\n        /* \"#utility.yul\":12993:12994   */\n      0x04\n        /* \"#utility.yul\":12986:13001   */\n      mstore\n        /* \"#utility.yul\":13020:13024   */\n      0x24\n        /* \"#utility.yul\":13017:13018   */\n      0x00\n        /* \"#utility.yul\":13010:13025   */\n      revert\n        /* \"#utility.yul\":13037:13217   */\n    tag_137:\n        /* \"#utility.yul\":13085:13162   */\n      0x4e487b7100000000000000000000000000000000000000000000000000000000\n        /* \"#utility.yul\":13082:13083   */\n      0x00\n        /* \"#utility.yul\":13075:13163   */\n      mstore\n        /* \"#utility.yul\":13182:13186   */\n      0x11\n        /* \"#utility.yul\":13179:13180   */\n      0x04\n        /* \"#utility.yul\":13172:13187   */\n      mstore\n        /* \"#utility.yul\":13206:13210   */\n      0x24\n        /* \"#utility.yul\":13203:13204   */\n      0x00\n        /* \"#utility.yul\":13196:13211   */\n      revert\n        /* \"#utility.yul\":13223:13456   */\n    tag_54:\n        /* \"#utility.yul\":13262:13265   */\n      0x00\n        /* \"#utility.yul\":13285:13309   */\n      tag_280\n        /* \"#utility.yul\":13303:13308   */\n      dup3\n        /* \"#utility.yul\":13285:13309   */\n      tag_105\n      jump\t// in\n    tag_280:\n        /* \"#utility.yul\":13276:13309   */\n      swap2\n      pop\n        /* \"#utility.yul\":13331:13397   */\n      0xffffffffffffffffffffffffffffffffffffffffffffffffffffffffffffffff\n        /* \"#utility.yul\":13324:13329   */\n      dup3\n        /* \"#utility.yul\":13321:13398   */\n      sub\n        /* \"#utility.yul\":13318:13421   */\n      tag_281\n      jumpi\n        /* \"#utility.yul\":13401:13419   */\n      tag_282\n      tag_137\n      jump\t// in\n    tag_282:\n        /* \"#utility.yul\":13318:13421   */\n    tag_281:\n        /* \"#utility.yul\":13448:13449   */\n      0x01\n        /* \"#utility.yul\":13441:13446   */\n      dup3\n        /* \"#utility.yul\":13437:13450   */\n      add\n        /* \"#utility.yul\":13430:13450   */\n      swap1\n      pop\n        /* \"#utility.yul\":13223:13456   */\n      swap2\n      swap1\n      pop\n      jump\t// out\n        /* \"#utility.yul\":13462:13626   */\n    tag_138:\n        /* \"#utility.yul\":13602:13618   */\n      0x496e76616c69642073656e646572000000000000000000000000000000000000\n        /* \"#utility.yul\":13598:13599   */\n      0x00\n        /* \"#utility.yul\":13590:13596   */\n      dup3\n        /* \"#utility.yul\":13586:13600   */\n      add\n        /* \"#utility.yul\":13579:13619   */\n      mstore\n        /* \"#utility.yul\":13462:13626   */\n      pop\n      jump\t// out\n        /* \"#utility.yul\":13632:13998   */\n    tag_139:\n        /* \"#utility.yul\":13774:13777   */\n      0x00\n        /* \"#utility.yul\":13795:13862   */\n      tag_285\n        /* \"#utility.yul\":13859:13861   */\n      0x0e\n        /* \"#utility.yul\":13854:13857   */\n      dup4\n        /* \"#utility.yul\":13795:13862   */\n      tag_120\n      jump\t// in\n    tag_285:\n        /* \"#utility.yul\":13788:13862   */\n      swap2\n      pop\n        /* \"#utility.yul\":13871:13964   */\n      tag_286\n        /* \"#utility.yul\":13960:13963   */\n      dup3\n        /* \"#utility.yul\":13871:13964   */\n      tag_138\n      jump\t// in\n    tag_286:\n        /* \"#utility.yul\":13989:13991   */\n      0x20\n        /* \"#utility.yul\":13984:13987   */\n      dup3\n        /* \"#utility.yul\":13980:13992   */\n      add\n        /* \"#utility.yul\":13973:13992   */\n      swap1\n      pop\n        /* \"#utility.yul\":13632:13998   */\n      swap2\n      swap1\n      pop\n      jump\t// out\n        /* \"#utility.yul\":14004:14423   */\n    tag_63:\n        /* \"#utility.yul\":14170:14174   */\n      0x00\n        /* \"#utility.yul\":14208:14210   */\n      0x20\n        /* \"#utility.yul\":14197:14206   */\n      dup3\n        /* \"#utility.yul\":14193:14211   */\n      add\n        /* \"#utility.yul\":14185:14211   */\n      swap1\n      pop\n        /* \"#utility.yul\":14257:14266   */\n      dup2\n        /* \"#utility.yul\":14251:14255   */\n      dup2\n        /* \"#utility.yul\":14247:14267   */\n      sub\n        /* \"#utility.yul\":14243:14244   */\n      0x00\n        /* \"#utility.yul\":14232:14241   */\n      dup4\n        /* \"#utility.yul\":14228:14245   */\n      add\n        /* \"#utility.yul\":14221:14268   */\n      mstore\n        /* \"#utility.yul\":14285:14416   */\n      tag_288\n        /* \"#utility.yul\":14411:14415   */\n      dup2\n        /* \"#utility.yul\":14285:14416   */\n      tag_139\n      jump\t// in\n    tag_288:\n        /* \"#utility.yul\":14277:14416   */\n      swap1\n      pop\n        /* \"#utility.yul\":14004:14423   */\n      swap2\n      swap1\n      pop\n      jump\t// out\n        /* \"#utility.yul\":14429:14620   */\n    tag_69:\n        /* \"#utility.yul\":14469:14472   */\n      0x00\n        /* \"#utility.yul\":14488:14508   */\n      tag_290\n        /* \"#utility.yul\":14506:14507   */\n      dup3\n        /* \"#utility.yul\":14488:14508   */\n      tag_105\n      jump\t// in\n    tag_290:\n        /* \"#utility.yul\":14483:14508   */\n      swap2\n      pop\n        /* \"#utility.yul\":14522:14542   */\n      tag_291\n        /* \"#utility.yul\":14540:14541   */\n      dup4\n        /* \"#utility.yul\":14522:14542   */\n      tag_105\n      jump\t// in\n    tag_291:\n        /* \"#utility.yul\":14517:14542   */\n      swap3\n      pop\n        /* \"#utility.yul\":14565:14566   */\n      dup3\n        /* \"#utility.yul\":14562:14563   */\n      dup3\n        /* \"#utility.yul\":14558:14567   */\n      add\n        /* \"#utility.yul\":14551:14567   */\n      swap1\n      pop\n        /* \"#utility.yul\":14586:14589   */\n      dup1\n        /* \"#utility.yul\":14583:14584   */\n      dup3\n        /* \"#utility.yul\":14580:14590   */\n      gt\n        /* \"#utility.yul\":14577:14613   */\n      iszero\n      tag_292\n      jumpi\n        /* \"#utility.yul\":14593:14611   */\n      tag_293\n      tag_137\n      jump\t// in\n    tag_293:\n        /* \"#utility.yul\":14577:14613   */\n    tag_292:\n        /* \"#utility.yul\":14429:14620   */\n      swap3\n      swap2\n      pop\n      pop\n      jump\t// out\n        /* \"#utility.yul\":14626:14806   */\n    tag_140:\n        /* \"#utility.yul\":14674:14751   */\n      0x4e487b7100000000000000000000000000000000000000000000000000000000\n        /* \"#utility.yul\":14671:14672   */\n      0x00\n        /* \"#utility.yul\":14664:14752   */\n      mstore\n        /* \"#utility.yul\":14771:14775   */\n      0x22\n        /* \"#utility.yul\":14768:14769   */\n      0x04\n        /* \"#utility.yul\":14761:14776   */\n      mstore\n        /* \"#utility.yul\":14795:14799   */\n      0x24\n        /* \"#utility.yul\":14792:14793   */\n      0x00\n        /* \"#utility.yul\":14785:14800   */\n      revert\n        /* \"#utility.yul\":14812:15132   */\n    tag_77:\n        /* \"#utility.yul\":14856:14862   */\n      0x00\n        /* \"#utility.yul\":14893:14894   */\n      0x02\n        /* \"#utility.yul\":14887:14891   */\n      dup3\n        /* \"#utility.yul\":14883:14895   */\n      div\n        /* \"#utility.yul\":14873:14895   */\n      swap1\n      pop\n        /* \"#utility.yul\":14940:14941   */\n      0x01\n        /* \"#utility.yul\":14934:14938   */\n      dup3\n        /* \"#utility.yul\":14930:14942   */\n      and\n        /* \"#utility.yul\":14961:14979   */\n      dup1\n        /* \"#utility.yul\":14951:15032   */\n      tag_296\n      jumpi\n        /* \"#utility.yul\":15017:15021   */\n      0x7f\n        /* \"#utility.yul\":15009:15015   */\n      dup3\n        /* \"#utility.yul\":15005:15022   */\n      and\n        /* \"#utility.yul\":14995:15022   */\n      swap2\n      pop\n        /* \"#utility.yul\":14951:15032   */\n    tag_296:\n        /* \"#utility.yul\":15079:15081   */\n      0x20\n        /* \"#utility.yul\":15071:15077   */\n      dup3\n        /* \"#utility.yul\":15068:15082   */\n      lt\n        /* \"#utility.yul\":15048:15066   */\n      dup2\n        /* \"#utility.yul\":15045:15083   */\n      sub\n        /* \"#utility.yul\":15042:15126   */\n      tag_297\n      jumpi\n        /* \"#utility.yul\":15098:15116   */\n      tag_298\n      tag_140\n      jump\t// in\n    tag_298:\n        /* \"#utility.yul\":15042:15126   */\n    tag_297:\n        /* \"#utility.yul\":14863:15132   */\n      pop\n        /* \"#utility.yul\":14812:15132   */\n      swap2\n      swap1\n      pop\n      jump\t// out\n        /* \"#utility.yul\":15138:15279   */\n    tag_141:\n        /* \"#utility.yul\":15187:15191   */\n      0x00\n        /* \"#utility.yul\":15210:15213   */\n      dup2\n        /* \"#utility.yul\":15202:15213   */\n      swap1\n      pop\n        /* \"#utility.yul\":15233:15236   */\n      dup2\n        /* \"#utility.yul\":15230:15231   */\n      0x00\n        /* \"#utility.yul\":15223:15237   */\n      mstore\n        /* \"#utility.yul\":15267:15271   */\n      0x20\n        /* \"#utility.yul\":15264:15265   */\n      0x00\n        /* \"#utility.yul\":15254:15272   */\n      keccak256\n        /* \"#utility.yul\":15246:15272   */\n      swap1\n      pop\n        /* \"#utility.yul\":15138:15279   */\n      swap2\n      swap1\n      pop\n      jump\t// out\n        /* \"#utility.yul\":15285:15378   */\n    tag_142:\n        /* \"#utility.yul\":15322:15328   */\n      0x00\n        /* \"#utility.yul\":15369:15371   */\n      0x20\n        /* \"#utility.yul\":15364:15366   */\n      0x1f\n        /* \"#utility.yul\":15357:15362   */\n      dup4\n        /* \"#utility.yul\":15353:15367   */\n      add\n        /* \"#utility.yul\":15349:15372   */\n      div\n        /* \"#utility.yul\":15339:15372   */\n      swap1\n      pop\n        /* \"#utility.yul\":15285:15378   */\n      swap2\n      swap1\n      pop\n      jump\t// out\n        /* \"#utility.yul\":15384:15491   */\n    tag_143:\n        /* \"#utility.yul\":15428:15436   */\n      0x00\n        /* \"#utility.yul\":15478:15483   */\n      dup3\n        /* \"#utility.yul\":15472:15476   */\n      dup3\n        /* \"#utility.yul\":15468:15484   */\n      shl\n        /* \"#utility.yul\":15447:15484   */\n      swap1\n      pop\n        /* \"#utility.yul\":15384:15491   */\n      swap3\n      swap2\n      pop\n      pop\n      jump\t// out\n        /* \"#utility.yul\":15497:15890   */\n    tag_144:\n        /* \"#utility.yul\":15566:15572   */\n      0x00\n        /* \"#utility.yul\":15616:15617   */\n      0x08\n        /* \"#utility.yul\":15604:15614   */\n      dup4\n        /* \"#utility.yul\":15600:15618   */\n      mul\n        /* \"#utility.yul\":15639:15736   */\n      tag_303\n        /* \"#utility.yul\":15669:15735   */\n      0xffffffffffffffffffffffffffffffffffffffffffffffffffffffffffffffff\n        /* \"#utility.yul\":15658:15667   */\n      dup3\n        /* \"#utility.yul\":15639:15736   */\n      tag_143\n      jump\t// in\n    tag_303:\n        /* \"#utility.yul\":15757:15796   */\n      tag_304\n        /* \"#utility.yul\":15787:15795   */\n      dup7\n        /* \"#utility.yul\":15776:15785   */\n      dup4\n        /* \"#utility.yul\":15757:15796   */\n      tag_143\n      jump\t// in\n    tag_304:\n        /* \"#utility.yul\":15745:15796   */\n      swap6\n      pop\n        /* \"#utility.yul\":15829:15833   */\n      dup1\n        /* \"#utility.yul\":15825:15834   */\n      not\n        /* \"#utility.yul\":15818:15823   */\n      dup5\n        /* \"#utility.yul\":15814:15835   */\n      and\n        /* \"#utility.yul\":15805:15835   */\n      swap4\n      pop\n        /* \"#utility.yul\":15878:15882   */\n      dup1\n        /* \"#utility.yul\":15868:15876   */\n      dup7\n        /* \"#utility.yul\":15864:15883   */\n      and\n        /* \"#utility.yul\":15857:15862   */\n      dup5\n        /* \"#utility.yul\":15854:15884   */\n      or\n        /* \"#utility.yul\":15844:15884   */\n      swap3\n      pop\n        /* \"#utility.yul\":15573:15890   */\n      pop\n      pop\n        /* \"#utility.yul\":15497:15890   */\n      swap4\n      swap3\n      pop\n      pop\n      pop\n      jump\t// out\n        /* \"#utility.yul\":15896:15956   */\n    tag_145:\n        /* \"#utility.yul\":15924:15927   */\n      0x00\n        /* \"#utility.yul\":15945:15950   */\n      dup2\n        /* \"#utility.yul\":15938:15950   */\n      swap1\n      pop\n        /* \"#utility.yul\":15896:15956   */\n      swap2\n      swap1\n      pop\n      jump\t// out\n        /* \"#utility.yul\":15962:16104   */\n    tag_146:\n        /* \"#utility.yul\":16012:16021   */\n      0x00\n        /* \"#utility.yul\":16045:16098   */\n      tag_307\n        /* \"#utility.yul\":16063:16097   */\n      tag_308\n        /* \"#utility.yul\":16072:16096   */\n      tag_309\n        /* \"#utility.yul\":16090:16095   */\n      dup5\n        /* \"#utility.yul\":16072:16096   */\n      tag_105\n      jump\t// in\n    tag_309:\n        /* \"#utility.yul\":16063:16097   */\n      tag_145\n      jump\t// in\n    tag_308:\n        /* \"#utility.yul\":16045:16098   */\n      tag_105\n      jump\t// in\n    tag_307:\n        /* \"#utility.yul\":16032:16098   */\n      swap1\n      pop\n        /* \"#utility.yul\":15962:16104   */\n      swap2\n      swap1\n      pop\n      jump\t// out\n        /* \"#utility.yul\":16110:16185   */\n    tag_147:\n        /* \"#utility.yul\":16153:16156   */\n      0x00\n        /* \"#utility.yul\":16174:16179   */\n      dup2\n        /* \"#utility.yul\":16167:16179   */\n      swap1\n      pop\n        /* \"#utility.yul\":16110:16185   */\n      swap2\n      swap1\n      pop\n      jump\t// out\n        /* \"#utility.yul\":16191:16460   */\n    tag_148:\n        /* \"#utility.yul\":16301:16340   */\n      tag_312\n        /* \"#utility.yul\":16332:16339   */\n      dup4\n        /* \"#utility.yul\":16301:16340   */\n      tag_146\n      jump\t// in\n    tag_312:\n        /* \"#utility.yul\":16362:16453   */\n      tag_313\n        /* \"#utility.yul\":16411:16452   */\n      tag_314\n        /* \"#utility.yul\":16435:16451   */\n      dup3\n        /* \"#utility.yul\":16411:16452   */\n      tag_147\n      jump\t// in\n    tag_314:\n        /* \"#utility.yul\":16403:16409   */\n      dup5\n        /* \"#utility.yul\":16396:16400   */\n      dup5\n        /* \"#utility.yul\":16390:16401   */\n      sload\n        /* \"#utility.yul\":16362:16453   */\n      tag_144\n      jump\t// in\n    tag_313:\n        /* \"#utility.yul\":16356:16360   */\n      dup3\n        /* \"#utility.yul\":16349:16454   */\n      sstore\n        /* \"#utility.yul\":16267:16460   */\n      pop\n        /* \"#utility.yul\":16191:16460   */\n      pop\n      pop\n      pop\n      jump\t// out\n        /* \"#utility.yul\":16466:16539   */\n    tag_149:\n        /* \"#utility.yul\":16511:16514   */\n      0x00\n        /* \"#utility.yul\":16466:16539   */\n      swap1\n      jump\t// out\n        /* \"#utility.yul\":16545:16734   */\n    tag_150:\n        /* \"#utility.yul\":16622:16654   */\n      tag_317\n      tag_149\n      jump\t// in\n    tag_317:\n        /* \"#utility.yul\":16663:16728   */\n      tag_318\n        /* \"#utility.yul\":16721:16727   */\n      dup2\n        /* \"#utility.yul\":16713:16719   */\n      dup5\n        /* \"#utility.yul\":16707:16711   */\n      dup5\n        /* \"#utility.yul\":16663:16728   */\n      tag_148\n      jump\t// in\n    tag_318:\n        /* \"#utility.yul\":16598:16734   */\n      pop\n        /* \"#utility.yul\":16545:16734   */\n      pop\n      pop\n      jump\t// out\n        /* \"#utility.yul\":16740:16926   */\n    tag_151:\n        /* \"#utility.yul\":16800:16920   */\n    tag_320:\n        /* \"#utility.yul\":16817:16820   */\n      dup2\n        /* \"#utility.yul\":16810:16815   */\n      dup2\n        /* \"#utility.yul\":16807:16821   */\n      lt\n        /* \"#utility.yul\":16800:16920   */\n      iszero\n      tag_322\n      jumpi\n        /* \"#utility.yul\":16871:16910   */\n      tag_323\n        /* \"#utility.yul\":16908:16909   */\n      0x00\n        /* \"#utility.yul\":16901:16906   */\n      dup3\n        /* \"#utility.yul\":16871:16910   */\n      tag_150\n      jump\t// in\n    tag_323:\n        /* \"#utility.yul\":16844:16845   */\n      0x01\n        /* \"#utility.yul\":16837:16842   */\n      dup2\n        /* \"#utility.yul\":16833:16846   */\n      add\n        /* \"#utility.yul\":16824:16846   */\n      swap1\n      pop\n        /* \"#utility.yul\":16800:16920   */\n      jump(tag_320)\n    tag_322:\n        /* \"#utility.yul\":16740:16926   */\n      pop\n      pop\n      jump\t// out\n        /* \"#utility.yul\":16932:17475   */\n    tag_152:\n        /* \"#utility.yul\":17033:17035   */\n      0x1f\n        /* \"#utility.yul\":17028:17031   */\n      dup3\n        /* \"#utility.yul\":17025:17036   */\n      gt\n        /* \"#utility.yul\":17022:17468   */\n      iszero\n      tag_325\n      jumpi\n        /* \"#utility.yul\":17067:17105   */\n      tag_326\n        /* \"#utility.yul\":17099:17104   */\n      dup2\n        /* \"#utility.yul\":17067:17105   */\n      tag_141\n      jump\t// in\n    tag_326:\n        /* \"#utility.yul\":17151:17180   */\n      tag_327\n        /* \"#utility.yul\":17169:17179   */\n      dup5\n        /* \"#utility.yul\":17151:17180   */\n      tag_142\n      jump\t// in\n    tag_327:\n        /* \"#utility.yul\":17141:17149   */\n      dup2\n        /* \"#utility.yul\":17137:17181   */\n      add\n        /* \"#utility.yul\":17334:17336   */\n      0x20\n        /* \"#utility.yul\":17322:17332   */\n      dup6\n        /* \"#utility.yul\":17319:17337   */\n      lt\n        /* \"#utility.yul\":17316:17365   */\n      iszero\n      tag_328\n      jumpi\n        /* \"#utility.yul\":17355:17363   */\n      dup2\n        /* \"#utility.yul\":17340:17363   */\n      swap1\n      pop\n        /* \"#utility.yul\":17316:17365   */\n    tag_328:\n        /* \"#utility.yul\":17378:17458   */\n      tag_329\n        /* \"#utility.yul\":17434:17456   */\n      tag_330\n        /* \"#utility.yul\":17452:17455   */\n      dup6\n        /* \"#utility.yul\":17434:17456   */\n      tag_142\n      jump\t// in\n    tag_330:\n        /* \"#utility.yul\":17424:17432   */\n      dup4\n        /* \"#utility.yul\":17420:17457   */\n      add\n        /* \"#utility.yul\":17407:17418   */\n      dup3\n        /* \"#utility.yul\":17378:17458   */\n      tag_151\n      jump\t// in\n    tag_329:\n        /* \"#utility.yul\":17037:17468   */\n      pop\n      pop\n        /* \"#utility.yul\":17022:17468   */\n    tag_325:\n        /* \"#utility.yul\":16932:17475   */\n      pop\n      pop\n      pop\n      jump\t// out\n        /* \"#utility.yul\":17481:17598   */\n    tag_153:\n        /* \"#utility.yul\":17535:17543   */\n      0x00\n        /* \"#utility.yul\":17585:17590   */\n      dup3\n        /* \"#utility.yul\":17579:17583   */\n      dup3\n        /* \"#utility.yul\":17575:17591   */\n      shr\n        /* \"#utility.yul\":17554:17591   */\n      swap1\n      pop\n        /* \"#utility.yul\":17481:17598   */\n      swap3\n      swap2\n      pop\n      pop\n      jump\t// out\n        /* \"#utility.yul\":17604:17773   */\n    tag_154:\n        /* \"#utility.yul\":17648:17654   */\n      0x00\n        /* \"#utility.yul\":17681:17732   */\n      tag_333\n        /* \"#utility.yul\":17729:17730   */\n      0x00\n        /* \"#utility.yul\":17725:17731   */\n      not\n        /* \"#utility.yul\":17717:17722   */\n      dup5\n        /* \"#utility.yul\":17714:17715   */\n      0x08\n        /* \"#utility.yul\":17710:17723   */\n      mul\n        /* \"#utility.yul\":17681:17732   */\n      tag_153\n      jump\t// in\n    tag_333:\n        /* \"#utility.yul\":17677:17733   */\n      not\n        /* \"#utility.yul\":17762:17766   */\n      dup1\n        /* \"#utility.yul\":17756:17760   */\n      dup4\n        /* \"#utility.yul\":17752:17767   */\n      and\n        /* \"#utility.yul\":17742:17767   */\n      swap2\n      pop\n        /* \"#utility.yul\":17655:17773   */\n      pop\n        /* \"#utility.yul\":17604:17773   */\n      swap3\n      swap2\n      pop\n      pop\n      jump\t// out\n        /* \"#utility.yul\":17778:18073   */\n    tag_155:\n        /* \"#utility.yul\":17854:17858   */\n      0x00\n        /* \"#utility.yul\":18000:18029   */\n      tag_335\n        /* \"#utility.yul\":18025:18028   */\n      dup4\n        /* \"#utility.yul\":18019:18023   */\n      dup4\n        /* \"#utility.yul\":18000:18029   */\n      tag_154\n      jump\t// in\n    tag_335:\n        /* \"#utility.yul\":17992:18029   */\n      swap2\n      pop\n        /* \"#utility.yul\":18062:18065   */\n      dup3\n        /* \"#utility.yul\":18059:18060   */\n      0x02\n        /* \"#utility.yul\":18055:18066   */\n      mul\n        /* \"#utility.yul\":18049:18053   */\n      dup3\n        /* \"#utility.yul\":18046:18067   */\n      or\n        /* \"#utility.yul\":18038:18067   */\n      swap1\n      pop\n        /* \"#utility.yul\":17778:18073   */\n      swap3\n      swap2\n      pop\n      pop\n      jump\t// out\n        /* \"#utility.yul\":18078:19473   */\n    tag_72:\n        /* \"#utility.yul\":18195:18232   */\n      tag_337\n        /* \"#utility.yul\":18228:18231   */\n      dup3\n        /* \"#utility.yul\":18195:18232   */\n      tag_119\n      jump\t// in\n    tag_337:\n        /* \"#utility.yul\":18297:18315   */\n      0xffffffffffffffff\n        /* \"#utility.yul\":18289:18295   */\n      dup2\n        /* \"#utility.yul\":18286:18316   */\n      gt\n        /* \"#utility.yul\":18283:18339   */\n      iszero\n      tag_338\n      jumpi\n        /* \"#utility.yul\":18319:18337   */\n      tag_339\n      tag_112\n      jump\t// in\n    tag_339:\n        /* \"#utility.yul\":18283:18339   */\n    tag_338:\n        /* \"#utility.yul\":18363:18401   */\n      tag_340\n        /* \"#utility.yul\":18395:18399   */\n      dup3\n        /* \"#utility.yul\":18389:18400   */\n      sload\n        /* \"#utility.yul\":18363:18401   */\n      tag_77\n      jump\t// in\n    tag_340:\n        /* \"#utility.yul\":18448:18515   */\n      tag_341\n        /* \"#utility.yul\":18508:18514   */\n      dup3\n        /* \"#utility.yul\":18500:18506   */\n      dup3\n        /* \"#utility.yul\":18494:18498   */\n      dup6\n        /* \"#utility.yul\":18448:18515   */\n      tag_152\n      jump\t// in\n    tag_341:\n        /* \"#utility.yul\":18542:18543   */\n      0x00\n        /* \"#utility.yul\":18566:18570   */\n      0x20\n        /* \"#utility.yul\":18553:18570   */\n      swap1\n      pop\n        /* \"#utility.yul\":18598:18600   */\n      0x1f\n        /* \"#utility.yul\":18590:18596   */\n      dup4\n        /* \"#utility.yul\":18587:18601   */\n      gt\n        /* \"#utility.yul\":18615:18616   */\n      0x01\n        /* \"#utility.yul\":18610:19228   */\n      dup2\n      eq\n      tag_343\n      jumpi\n        /* \"#utility.yul\":19272:19273   */\n      0x00\n        /* \"#utility.yul\":19289:19295   */\n      dup5\n        /* \"#utility.yul\":19286:19363   */\n      iszero\n      tag_344\n      jumpi\n        /* \"#utility.yul\":19338:19347   */\n      dup3\n        /* \"#utility.yul\":19333:19336   */\n      dup8\n        /* \"#utility.yul\":19329:19348   */\n      add\n        /* \"#utility.yul\":19323:19349   */\n      mload\n        /* \"#utility.yul\":19314:19349   */\n      swap1\n      pop\n        /* \"#utility.yul\":19286:19363   */\n    tag_344:\n        /* \"#utility.yul\":19389:19456   */\n      tag_345\n        /* \"#utility.yul\":19449:19455   */\n      dup6\n        /* \"#utility.yul\":19442:19447   */\n      dup3\n        /* \"#utility.yul\":19389:19456   */\n      tag_155\n      jump\t// in\n    tag_345:\n        /* \"#utility.yul\":19383:19387   */\n      dup7\n        /* \"#utility.yul\":19376:19457   */\n      sstore\n        /* \"#utility.yul\":19245:19467   */\n      pop\n        /* \"#utility.yul\":18580:19467   */\n      jump(tag_342)\n        /* \"#utility.yul\":18610:19228   */\n    tag_343:\n        /* \"#utility.yul\":18662:18666   */\n      0x1f\n        /* \"#utility.yul\":18658:18667   */\n      not\n        /* \"#utility.yul\":18650:18656   */\n      dup5\n        /* \"#utility.yul\":18646:18668   */\n      and\n        /* \"#utility.yul\":18696:18733   */\n      tag_346\n        /* \"#utility.yul\":18728:18732   */\n      dup7\n        /* \"#utility.yul\":18696:18733   */\n      tag_141\n      jump\t// in\n    tag_346:\n        /* \"#utility.yul\":18755:18756   */\n      0x00\n        /* \"#utility.yul\":18769:18977   */\n    tag_347:\n        /* \"#utility.yul\":18783:18790   */\n      dup3\n        /* \"#utility.yul\":18780:18781   */\n      dup2\n        /* \"#utility.yul\":18777:18791   */\n      lt\n        /* \"#utility.yul\":18769:18977   */\n      iszero\n      tag_349\n      jumpi\n        /* \"#utility.yul\":18862:18871   */\n      dup5\n        /* \"#utility.yul\":18857:18860   */\n      dup10\n        /* \"#utility.yul\":18853:18872   */\n      add\n        /* \"#utility.yul\":18847:18873   */\n      mload\n        /* \"#utility.yul\":18839:18845   */\n      dup3\n        /* \"#utility.yul\":18832:18874   */\n      sstore\n        /* \"#utility.yul\":18913:18914   */\n      0x01\n        /* \"#utility.yul\":18905:18911   */\n      dup3\n        /* \"#utility.yul\":18901:18915   */\n      add\n        /* \"#utility.yul\":18891:18915   */\n      swap2\n      pop\n        /* \"#utility.yul\":18960:18962   */\n      0x20\n        /* \"#utility.yul\":18949:18958   */\n      dup6\n        /* \"#utility.yul\":18945:18963   */\n      add\n        /* \"#utility.yul\":18932:18963   */\n      swap5\n      pop\n        /* \"#utility.yul\":18806:18810   */\n      0x20\n        /* \"#utility.yul\":18803:18804   */\n      dup2\n        /* \"#utility.yul\":18799:18811   */\n      add\n        /* \"#utility.yul\":18794:18811   */\n      swap1\n      pop\n        /* \"#utility.yul\":18769:18977   */\n      jump(tag_347)\n    tag_349:\n        /* \"#utility.yul\":19005:19011   */\n      dup7\n        /* \"#utility.yul\":18996:19003   */\n      dup4\n        /* \"#utility.yul\":18993:19012   */\n      lt\n        /* \"#utility.yul\":18990:19169   */\n      iszero\n      tag_350\n      jumpi\n        /* \"#utility.yul\":19063:19072   */\n      dup5\n        /* \"#utility.yul\":19058:19061   */\n      dup10\n        /* \"#utility.yul\":19054:19073   */\n      add\n        /* \"#utility.yul\":19048:19074   */\n      mload\n        /* \"#utility.yul\":19106:19154   */\n      tag_351\n        /* \"#utility.yul\":19148:19152   */\n      0x1f\n        /* \"#utility.yul\":19140:19146   */\n      dup10\n        /* \"#utility.yul\":19136:19153   */\n      and\n        /* \"#utility.yul\":19125:19134   */\n      dup3\n        /* \"#utility.yul\":19106:19154   */\n      tag_154\n      jump\t// in\n    tag_351:\n        /* \"#utility.yul\":19098:19104   */\n      dup4\n        /* \"#utility.yul\":19091:19155   */\n      sstore\n        /* \"#utility.yul\":19013:19169   */\n      pop\n        /* \"#utility.yul\":18990:19169   */\n    tag_350:\n        /* \"#utility.yul\":19215:19216   */\n      0x01\n        /* \"#utility.yul\":19211:19212   */\n      0x02\n        /* \"#utility.yul\":19203:19209   */\n      dup9\n        /* \"#utility.yul\":19199:19213   */\n      mul\n        /* \"#utility.yul\":19195:19217   */\n      add\n        /* \"#utility.yul\":19189:19193   */\n      dup9\n        /* \"#utility.yul\":19182:19218   */\n      sstore\n        /* \"#utility.yul\":18617:19228   */\n      pop\n      pop\n      pop\n        /* \"#utility.yul\":18580:19467   */\n    tag_342:\n      pop\n        /* \"#utility.yul\":18170:19473   */\n      pop\n      pop\n      pop\n        /* \"#utility.yul\":18078:19473   */\n      pop\n      pop\n      jump\t// out\n\n    auxdata: 0xa2646970667358221220b6675b5e598f68df0a087ba0e6ec7e2aa311b3122b7ddce6de5e512719c8127764736f6c63430008180033\n}\n",
				"bytecode": {
					"linkReferences": {},
					"object": "60806040525f600155348015610013575f80fd5b50335f806101000a81548173ffffffffffffffffffffffffffffffffffffffff021916908373ffffffffffffffffffffffffffffffffffffffff16021790555061126b806100605f395ff3fe608060405234801561000f575f80fd5b5060043610610060575f3560e01c80630383badc146100645780631c7bec9d1461008057806355f9b1ec1461009e578063a598d03c146100ba578063d23254b4146100ee578063f1156cdf1461011f575b5f80fd5b61007e60048036038101906100799190610858565b61013d565b005b61008861039b565b6040516100959190610892565b60405180910390f35b6100b860048036038101906100b391906109e7565b6103a1565b005b6100d460048036038101906100cf9190610858565b6104f9565b6040516100e5959493929190610ae9565b60405180910390f35b61010860048036038101906101039190610ba2565b610646565b604051610116929190610be0565b60405180910390f35b610127610671565b6040516101349190610cd8565b60405180910390f35b600181148061014c5750600281145b61018b576040517f08c379a000000000000000000000000000000000000000000000000000000000815260040161018290610d42565b60405180910390fd5b42610194610671565b60800151116101d8576040517f08c379a00000000000000000000000000000000000000000000000000000000081526004016101cf90610daa565b60405180910390fd5b5f60035f60015481526020019081526020015f205f3373ffffffffffffffffffffffffffffffffffffffff1673ffffffffffffffffffffffffffffffffffffffff1681526020019081526020015f20600101541461026b576040517f08c379a000000000000000000000000000000000000000000000000000000000815260040161026290610e12565b60405180910390fd5b8060035f60015481526020019081526020015f205f3373ffffffffffffffffffffffffffffffffffffffff1673ffffffffffffffffffffffffffffffffffffffff1681526020019081526020015f205f01819055504260035f60015481526020019081526020015f205f3373ffffffffffffffffffffffffffffffffffffffff1673ffffffffffffffffffffffffffffffffffffffff1681526020019081526020015f20600101819055506001810361035d5760026001548154811061033457610333610e30565b5b905f5260205f2090600502016001015f81548092919061035390610e8a565b9190505550610398565b60026001548154811061037357610372610e30565b5b905f5260205f2090600502016003015f81548092919061039290610e8a565b91905055505b50565b60015481565b5f8054906101000a900473ffffffffffffffffffffffffffffffffffffffff1673ffffffffffffffffffffffffffffffffffffffff163373ffffffffffffffffffffffffffffffffffffffff161461042e576040517f08c379a000000000000000000000000000000000000000000000000000000000815260040161042590610f1b565b60405180910390fd5b5f600280549050146104525760015f81548092919061044c90610e8a565b91905055505b61045a6107e8565b83815f018190525082816040018190525042826104779190610f39565b816080018181525050600281908060018154018082558091505060019003905f5260205f2090600502015f909190919091505f820151815f0190816104bc9190611166565b506020820151816001015560408201518160020190816104dc9190611166565b506060820151816003015560808201518160040155505050505050565b60028181548110610508575f80fd5b905f5260205f2090600502015f91509050805f01805461052790610f99565b80601f016020809104026020016040519081016040528092919081815260200182805461055390610f99565b801561059e5780601f106105755761010080835404028352916020019161059e565b820191905f5260205f20905b81548152906001019060200180831161058157829003601f168201915b5050505050908060010154908060020180546105b990610f99565b80601f01602080910402602001604051908101604052809291908181526020018280546105e590610f99565b80156106305780601f1061060757610100808354040283529160200191610630565b820191905f5260205f20905b81548152906001019060200180831161061357829003601f168201915b5050505050908060030154908060040154905085565b6003602052815f5260405f20602052805f5260405f205f9150915050805f0154908060010154905082565b6106796107e8565b60026001548154811061068f5761068e610e30565b5b905f5260205f2090600502016040518060a00160405290815f820180546106b590610f99565b80601f01602080910402602001604051908101604052809291908181526020018280546106e190610f99565b801561072c5780601f106107035761010080835404028352916020019161072c565b820191905f5260205f20905b81548152906001019060200180831161070f57829003601f168201915b505050505081526020016001820154815260200160028201805461074f90610f99565b80601f016020809104026020016040519081016040528092919081815260200182805461077b90610f99565b80156107c65780601f1061079d576101008083540402835291602001916107c6565b820191905f5260205f20905b8154815290600101906020018083116107a957829003601f168201915b5050505050815260200160038201548152602001600482015481525050905090565b6040518060a00160405280606081526020015f8152602001606081526020015f81526020015f81525090565b5f604051905090565b5f80fd5b5f80fd5b5f819050919050565b61083781610825565b8114610841575f80fd5b50565b5f813590506108528161082e565b92915050565b5f6020828403121561086d5761086c61081d565b5b5f61087a84828501610844565b91505092915050565b61088c81610825565b82525050565b5f6020820190506108a55f830184610883565b92915050565b5f80fd5b5f80fd5b5f601f19601f8301169050919050565b7f4e487b71000000000000000000000000000000000000000000000000000000005f52604160045260245ffd5b6108f9826108b3565b810181811067ffffffffffffffff82111715610918576109176108c3565b5b80604052505050565b5f61092a610814565b905061093682826108f0565b919050565b5f67ffffffffffffffff821115610955576109546108c3565b5b61095e826108b3565b9050602081019050919050565b828183375f83830152505050565b5f61098b6109868461093b565b610921565b9050828152602081018484840111156109a7576109a66108af565b5b6109b284828561096b565b509392505050565b5f82601f8301126109ce576109cd6108ab565b5b81356109de848260208601610979565b91505092915050565b5f805f606084860312156109fe576109fd61081d565b5b5f84013567ffffffffffffffff811115610a1b57610a1a610821565b5b610a27868287016109ba565b935050602084013567ffffffffffffffff811115610a4857610a47610821565b5b610a54868287016109ba565b9250506040610a6586828701610844565b9150509250925092565b5f81519050919050565b5f82825260208201905092915050565b5f5b83811015610aa6578082015181840152602081019050610a8b565b5f8484015250505050565b5f610abb82610a6f565b610ac58185610a79565b9350610ad5818560208601610a89565b610ade816108b3565b840191505092915050565b5f60a0820190508181035f830152610b018188610ab1565b9050610b106020830187610883565b8181036040830152610b228186610ab1565b9050610b316060830185610883565b610b3e6080830184610883565b9695505050505050565b5f73ffffffffffffffffffffffffffffffffffffffff82169050919050565b5f610b7182610b48565b9050919050565b610b8181610b67565b8114610b8b575f80fd5b50565b5f81359050610b9c81610b78565b92915050565b5f8060408385031215610bb857610bb761081d565b5b5f610bc585828601610844565b9250506020610bd685828601610b8e565b9150509250929050565b5f604082019050610bf35f830185610883565b610c006020830184610883565b9392505050565b5f82825260208201905092915050565b5f610c2182610a6f565b610c2b8185610c07565b9350610c3b818560208601610a89565b610c44816108b3565b840191505092915050565b610c5881610825565b82525050565b5f60a083015f8301518482035f860152610c788282610c17565b9150506020830151610c8d6020860182610c4f565b5060408301518482036040860152610ca58282610c17565b9150506060830151610cba6060860182610c4f565b506080830151610ccd6080860182610c4f565b508091505092915050565b5f6020820190508181035f830152610cf08184610c5e565b905092915050565b7f496e76616c69642063686f6963650000000000000000000000000000000000005f82015250565b5f610d2c600e83610a79565b9150610d3782610cf8565b602082019050919050565b5f6020820190508181035f830152610d5981610d20565b9050919050565b7f4e6f206f70656e20766f74696e670000000000000000000000000000000000005f82015250565b5f610d94600e83610a79565b9150610d9f82610d60565b602082019050919050565b5f6020820190508181035f830152610dc181610d88565b9050919050565b7f596f7520616c726561647920766f746564206f6e207468697320766f74696e675f82015250565b5f610dfc602083610a79565b9150610e0782610dc8565b602082019050919050565b5f6020820190508181035f830152610e2981610df0565b9050919050565b7f4e487b71000000000000000000000000000000000000000000000000000000005f52603260045260245ffd5b7f4e487b71000000000000000000000000000000000000000000000000000000005f52601160045260245ffd5b5f610e9482610825565b91507fffffffffffffffffffffffffffffffffffffffffffffffffffffffffffffffff8203610ec657610ec5610e5d565b5b600182019050919050565b7f496e76616c69642073656e6465720000000000000000000000000000000000005f82015250565b5f610f05600e83610a79565b9150610f1082610ed1565b602082019050919050565b5f6020820190508181035f830152610f3281610ef9565b9050919050565b5f610f4382610825565b9150610f4e83610825565b9250828201905080821115610f6657610f65610e5d565b5b92915050565b7f4e487b71000000000000000000000000000000000000000000000000000000005f52602260045260245ffd5b5f6002820490506001821680610fb057607f821691505b602082108103610fc357610fc2610f6c565b5b50919050565b5f819050815f5260205f209050919050565b5f6020601f8301049050919050565b5f82821b905092915050565b5f600883026110257fffffffffffffffffffffffffffffffffffffffffffffffffffffffffffffffff82610fea565b61102f8683610fea565b95508019841693508086168417925050509392505050565b5f819050919050565b5f61106a61106561106084610825565b611047565b610825565b9050919050565b5f819050919050565b61108383611050565b61109761108f82611071565b848454610ff6565b825550505050565b5f90565b6110ab61109f565b6110b681848461107a565b505050565b5b818110156110d9576110ce5f826110a3565b6001810190506110bc565b5050565b601f82111561111e576110ef81610fc9565b6110f884610fdb565b81016020851015611107578190505b61111b61111385610fdb565b8301826110bb565b50505b505050565b5f82821c905092915050565b5f61113e5f1984600802611123565b1980831691505092915050565b5f611156838361112f565b9150826002028217905092915050565b61116f82610a6f565b67ffffffffffffffff811115611188576111876108c3565b5b6111928254610f99565b61119d8282856110dd565b5f60209050601f8311600181146111ce575f84156111bc578287015190505b6111c6858261114b565b86555061122d565b601f1984166111dc86610fc9565b5f5b82811015611203578489015182556001820191506020850194506020810190506111de565b86831015611220578489015161121c601f89168261112f565b8355505b6001600288020188555050505b50505050505056fea2646970667358221220b6675b5e598f68df0a087ba0e6ec7e2aa311b3122b7ddce6de5e512719c8127764736f6c63430008180033",
					"opcodes": "PUSH1 0x80 PUSH1 0x40 MSTORE PUSH0 PUSH1 0x1 SSTORE CALLVALUE DUP1 ISZERO PUSH2 0x13 JUMPI PUSH0 DUP1 REVERT JUMPDEST POP CALLER PUSH0 DUP1 PUSH2 0x100 EXP DUP2 SLOAD DUP2 PUSH20 0xFFFFFFFFFFFFFFFFFFFFFFFFFFFFFFFFFFFFFFFF MUL NOT AND SWAP1 DUP4 PUSH20 0xFFFFFFFFFFFFFFFFFFFFFFFFFFFFFFFFFFFFFFFF AND MUL OR SWAP1 SSTORE POP PUSH2 0x126B DUP1 PUSH2 0x60 PUSH0 CODECOPY PUSH0 RETURN INVALID PUSH1 0x80 PUSH1 0x40 MSTORE CALLVALUE DUP1 ISZERO PUSH2 0xF JUMPI PUSH0 DUP1 REVERT JUMPDEST POP PUSH1 0x4 CALLDATASIZE LT PUSH2 0x60 JUMPI PUSH0 CALLDATALOAD PUSH1 0xE0 SHR DUP1 PUSH4 0x383BADC EQ PUSH2 0x64 JUMPI DUP1 PUSH4 0x1C7BEC9D EQ PUSH2 0x80 JUMPI DUP1 PUSH4 0x55F9B1EC EQ PUSH2 0x9E JUMPI DUP1 PUSH4 0xA598D03C EQ PUSH2 0xBA JUMPI DUP1 PUSH4 0xD23254B4 EQ PUSH2 0xEE JUMPI DUP1 PUSH4 0xF1156CDF EQ PUSH2 0x11F JUMPI JUMPDEST PUSH0 DUP1 REVERT JUMPDEST PUSH2 0x7E PUSH1 0x4 DUP1 CALLDATASIZE SUB DUP2 ADD SWAP1 PUSH2 0x79 SWAP2 SWAP1 PUSH2 0x858 JUMP JUMPDEST PUSH2 0x13D JUMP JUMPDEST STOP JUMPDEST PUSH2 0x88 PUSH2 0x39B JUMP JUMPDEST PUSH1 0x40 MLOAD PUSH2 0x95 SWAP2 SWAP1 PUSH2 0x892 JUMP JUMPDEST PUSH1 0x40 MLOAD DUP1 SWAP2 SUB SWAP1 RETURN JUMPDEST PUSH2 0xB8 PUSH1 0x4 DUP1 CALLDATASIZE SUB DUP2 ADD SWAP1 PUSH2 0xB3 SWAP2 SWAP1 PUSH2 0x9E7 JUMP JUMPDEST PUSH2 0x3A1 JUMP JUMPDEST STOP JUMPDEST PUSH2 0xD4 PUSH1 0x4 DUP1 CALLDATASIZE SUB DUP2 ADD SWAP1 PUSH2 0xCF SWAP2 SWAP1 PUSH2 0x858 JUMP JUMPDEST PUSH2 0x4F9 JUMP JUMPDEST PUSH1 0x40 MLOAD PUSH2 0xE5 SWAP6 SWAP5 SWAP4 SWAP3 SWAP2 SWAP1 PUSH2 0xAE9 JUMP JUMPDEST PUSH1 0x40 MLOAD DUP1 SWAP2 SUB SWAP1 RETURN JUMPDEST PUSH2 0x108 PUSH1 0x4 DUP1 CALLDATASIZE SUB DUP2 ADD SWAP1 PUSH2 0x103 SWAP2 SWAP1 PUSH2 0xBA2 JUMP JUMPDEST PUSH2 0x646 JUMP JUMPDEST PUSH1 0x40 MLOAD PUSH2 0x116 SWAP3 SWAP2 SWAP1 PUSH2 0xBE0 JUMP JUMPDEST PUSH1 0x40 MLOAD DUP1 SWAP2 SUB SWAP1 RETURN JUMPDEST PUSH2 0x127 PUSH2 0x671 JUMP JUMPDEST PUSH1 0x40 MLOAD PUSH2 0x134 SWAP2 SWAP1 PUSH2 0xCD8 JUMP JUMPDEST PUSH1 0x40 MLOAD DUP1 SWAP2 SUB SWAP1 RETURN JUMPDEST PUSH1 0x1 DUP2 EQ DUP1 PUSH2 0x14C JUMPI POP PUSH1 0x2 DUP2 EQ JUMPDEST PUSH2 0x18B JUMPI PUSH1 0x40 MLOAD PUSH32 0x8C379A000000000000000000000000000000000000000000000000000000000 DUP2 MSTORE PUSH1 0x4 ADD PUSH2 0x182 SWAP1 PUSH2 0xD42 JUMP JUMPDEST PUSH1 0x40 MLOAD DUP1 SWAP2 SUB SWAP1 REVERT JUMPDEST TIMESTAMP PUSH2 0x194 PUSH2 0x671 JUMP JUMPDEST PUSH1 0x80 ADD MLOAD GT PUSH2 0x1D8 JUMPI PUSH1 0x40 MLOAD PUSH32 0x8C379A000000000000000000000000000000000000000000000000000000000 DUP2 MSTORE PUSH1 0x4 ADD PUSH2 0x1CF SWAP1 PUSH2 0xDAA JUMP JUMPDEST PUSH1 0x40 MLOAD DUP1 SWAP2 SUB SWAP1 REVERT JUMPDEST PUSH0 PUSH1 0x3 PUSH0 PUSH1 0x1 SLOAD DUP2 MSTORE PUSH1 0x20 ADD SWAP1 DUP2 MSTORE PUSH1 0x20 ADD PUSH0 KECCAK256 PUSH0 CALLER PUSH20 0xFFFFFFFFFFFFFFFFFFFFFFFFFFFFFFFFFFFFFFFF AND PUSH20 0xFFFFFFFFFFFFFFFFFFFFFFFFFFFFFFFFFFFFFFFF AND DUP2 MSTORE PUSH1 0x20 ADD SWAP1 DUP2 MSTORE PUSH1 0x20 ADD PUSH0 KECCAK256 PUSH1 0x1 ADD SLOAD EQ PUSH2 0x26B JUMPI PUSH1 0x40 MLOAD PUSH32 0x8C379A000000000000000000000000000000000000000000000000000000000 DUP2 MSTORE PUSH1 0x4 ADD PUSH2 0x262 SWAP1 PUSH2 0xE12 JUMP JUMPDEST PUSH1 0x40 MLOAD DUP1 SWAP2 SUB SWAP1 REVERT JUMPDEST DUP1 PUSH1 0x3 PUSH0 PUSH1 0x1 SLOAD DUP2 MSTORE PUSH1 0x20 ADD SWAP1 DUP2 MSTORE PUSH1 0x20 ADD PUSH0 KECCAK256 PUSH0 CALLER PUSH20 0xFFFFFFFFFFFFFFFFFFFFFFFFFFFFFFFFFFFFFFFF AND PUSH20 0xFFFFFFFFFFFFFFFFFFFFFFFFFFFFFFFFFFFFFFFF AND DUP2 MSTORE PUSH1 0x20 ADD SWAP1 DUP2 MSTORE PUSH1 0x20 ADD PUSH0 KECCAK256 PUSH0 ADD DUP2 SWAP1 SSTORE POP TIMESTAMP PUSH1 0x3 PUSH0 PUSH1 0x1 SLOAD DUP2 MSTORE PUSH1 0x20 ADD SWAP1 DUP2 MSTORE PUSH1 0x20 ADD PUSH0 KECCAK256 PUSH0 CALLER PUSH20 0xFFFFFFFFFFFFFFFFFFFFFFFFFFFFFFFFFFFFFFFF AND PUSH20 0xFFFFFFFFFFFFFFFFFFFFFFFFFFFFFFFFFFFFFFFF AND DUP2 MSTORE PUSH1 0x20 ADD SWAP1 DUP2 MSTORE PUSH1 0x20 ADD PUSH0 KECCAK256 PUSH1 0x1 ADD DUP2 SWAP1 SSTORE POP PUSH1 0x1 DUP2 SUB PUSH2 0x35D JUMPI PUSH1 0x2 PUSH1 0x1 SLOAD DUP2 SLOAD DUP2 LT PUSH2 0x334 JUMPI PUSH2 0x333 PUSH2 0xE30 JUMP JUMPDEST JUMPDEST SWAP1 PUSH0 MSTORE PUSH1 0x20 PUSH0 KECCAK256 SWAP1 PUSH1 0x5 MUL ADD PUSH1 0x1 ADD PUSH0 DUP2 SLOAD DUP1 SWAP3 SWAP2 SWAP1 PUSH2 0x353 SWAP1 PUSH2 0xE8A JUMP JUMPDEST SWAP2 SWAP1 POP SSTORE POP PUSH2 0x398 JUMP JUMPDEST PUSH1 0x2 PUSH1 0x1 SLOAD DUP2 SLOAD DUP2 LT PUSH2 0x373 JUMPI PUSH2 0x372 PUSH2 0xE30 JUMP JUMPDEST JUMPDEST SWAP1 PUSH0 MSTORE PUSH1 0x20 PUSH0 KECCAK256 SWAP1 PUSH1 0x5 MUL ADD PUSH1 0x3 ADD PUSH0 DUP2 SLOAD DUP1 SWAP3 SWAP2 SWAP1 PUSH2 0x392 SWAP1 PUSH2 0xE8A JUMP JUMPDEST SWAP2 SWAP1 POP SSTORE POP JUMPDEST POP JUMP JUMPDEST PUSH1 0x1 SLOAD DUP2 JUMP JUMPDEST PUSH0 DUP1 SLOAD SWAP1 PUSH2 0x100 EXP SWAP1 DIV PUSH20 0xFFFFFFFFFFFFFFFFFFFFFFFFFFFFFFFFFFFFFFFF AND PUSH20 0xFFFFFFFFFFFFFFFFFFFFFFFFFFFFFFFFFFFFFFFF AND CALLER PUSH20 0xFFFFFFFFFFFFFFFFFFFFFFFFFFFFFFFFFFFFFFFF AND EQ PUSH2 0x42E JUMPI PUSH1 0x40 MLOAD PUSH32 0x8C379A000000000000000000000000000000000000000000000000000000000 DUP2 MSTORE PUSH1 0x4 ADD PUSH2 0x425 SWAP1 PUSH2 0xF1B JUMP JUMPDEST PUSH1 0x40 MLOAD DUP1 SWAP2 SUB SWAP1 REVERT JUMPDEST PUSH0 PUSH1 0x2 DUP1 SLOAD SWAP1 POP EQ PUSH2 0x452 JUMPI PUSH1 0x1 PUSH0 DUP2 SLOAD DUP1 SWAP3 SWAP2 SWAP1 PUSH2 0x44C SWAP1 PUSH2 0xE8A JUMP JUMPDEST SWAP2 SWAP1 POP SSTORE POP JUMPDEST PUSH2 0x45A PUSH2 0x7E8 JUMP JUMPDEST DUP4 DUP2 PUSH0 ADD DUP2 SWAP1 MSTORE POP DUP3 DUP2 PUSH1 0x40 ADD DUP2 SWAP1 MSTORE POP TIMESTAMP DUP3 PUSH2 0x477 SWAP2 SWAP1 PUSH2 0xF39 JUMP JUMPDEST DUP2 PUSH1 0x80 ADD DUP2 DUP2 MSTORE POP POP PUSH1 0x2 DUP2 SWAP1 DUP1 PUSH1 0x1 DUP2 SLOAD ADD DUP1 DUP3 SSTORE DUP1 SWAP2 POP POP PUSH1 0x1 SWAP1 SUB SWAP1 PUSH0 MSTORE PUSH1 0x20 PUSH0 KECCAK256 SWAP1 PUSH1 0x5 MUL ADD PUSH0 SWAP1 SWAP2 SWAP1 SWAP2 SWAP1 SWAP2 POP PUSH0 DUP3 ADD MLOAD DUP2 PUSH0 ADD SWAP1 DUP2 PUSH2 0x4BC SWAP2 SWAP1 PUSH2 0x1166 JUMP JUMPDEST POP PUSH1 0x20 DUP3 ADD MLOAD DUP2 PUSH1 0x1 ADD SSTORE PUSH1 0x40 DUP3 ADD MLOAD DUP2 PUSH1 0x2 ADD SWAP1 DUP2 PUSH2 0x4DC SWAP2 SWAP1 PUSH2 0x1166 JUMP JUMPDEST POP PUSH1 0x60 DUP3 ADD MLOAD DUP2 PUSH1 0x3 ADD SSTORE PUSH1 0x80 DUP3 ADD MLOAD DUP2 PUSH1 0x4 ADD SSTORE POP POP POP POP POP POP JUMP JUMPDEST PUSH1 0x2 DUP2 DUP2 SLOAD DUP2 LT PUSH2 0x508 JUMPI PUSH0 DUP1 REVERT JUMPDEST SWAP1 PUSH0 MSTORE PUSH1 0x20 PUSH0 KECCAK256 SWAP1 PUSH1 0x5 MUL ADD PUSH0 SWAP2 POP SWAP1 POP DUP1 PUSH0 ADD DUP1 SLOAD PUSH2 0x527 SWAP1 PUSH2 0xF99 JUMP JUMPDEST DUP1 PUSH1 0x1F ADD PUSH1 0x20 DUP1 SWAP2 DIV MUL PUSH1 0x20 ADD PUSH1 0x40 MLOAD SWAP1 DUP2 ADD PUSH1 0x40 MSTORE DUP1 SWAP3 SWAP2 SWAP1 DUP2 DUP2 MSTORE PUSH1 0x20 ADD DUP3 DUP1 SLOAD PUSH2 0x553 SWAP1 PUSH2 0xF99 JUMP JUMPDEST DUP1 ISZERO PUSH2 0x59E JUMPI DUP1 PUSH1 0x1F LT PUSH2 0x575 JUMPI PUSH2 0x100 DUP1 DUP4 SLOAD DIV MUL DUP4 MSTORE SWAP2 PUSH1 0x20 ADD SWAP2 PUSH2 0x59E JUMP JUMPDEST DUP3 ADD SWAP2 SWAP1 PUSH0 MSTORE PUSH1 0x20 PUSH0 KECCAK256 SWAP1 JUMPDEST DUP2 SLOAD DUP2 MSTORE SWAP1 PUSH1 0x1 ADD SWAP1 PUSH1 0x20 ADD DUP1 DUP4 GT PUSH2 0x581 JUMPI DUP3 SWAP1 SUB PUSH1 0x1F AND DUP3 ADD SWAP2 JUMPDEST POP POP POP POP POP SWAP1 DUP1 PUSH1 0x1 ADD SLOAD SWAP1 DUP1 PUSH1 0x2 ADD DUP1 SLOAD PUSH2 0x5B9 SWAP1 PUSH2 0xF99 JUMP JUMPDEST DUP1 PUSH1 0x1F ADD PUSH1 0x20 DUP1 SWAP2 DIV MUL PUSH1 0x20 ADD PUSH1 0x40 MLOAD SWAP1 DUP2 ADD PUSH1 0x40 MSTORE DUP1 SWAP3 SWAP2 SWAP1 DUP2 DUP2 MSTORE PUSH1 0x20 ADD DUP3 DUP1 SLOAD PUSH2 0x5E5 SWAP1 PUSH2 0xF99 JUMP JUMPDEST DUP1 ISZERO PUSH2 0x630 JUMPI DUP1 PUSH1 0x1F LT PUSH2 0x607 JUMPI PUSH2 0x100 DUP1 DUP4 SLOAD DIV MUL DUP4 MSTORE SWAP2 PUSH1 0x20 ADD SWAP2 PUSH2 0x630 JUMP JUMPDEST DUP3 ADD SWAP2 SWAP1 PUSH0 MSTORE PUSH1 0x20 PUSH0 KECCAK256 SWAP1 JUMPDEST DUP2 SLOAD DUP2 MSTORE SWAP1 PUSH1 0x1 ADD SWAP1 PUSH1 0x20 ADD DUP1 DUP4 GT PUSH2 0x613 JUMPI DUP3 SWAP1 SUB PUSH1 0x1F AND DUP3 ADD SWAP2 JUMPDEST POP POP POP POP POP SWAP1 DUP1 PUSH1 0x3 ADD SLOAD SWAP1 DUP1 PUSH1 0x4 ADD SLOAD SWAP1 POP DUP6 JUMP JUMPDEST PUSH1 0x3 PUSH1 0x20 MSTORE DUP2 PUSH0 MSTORE PUSH1 0x40 PUSH0 KECCAK256 PUSH1 0x20 MSTORE DUP1 PUSH0 MSTORE PUSH1 0x40 PUSH0 KECCAK256 PUSH0 SWAP2 POP SWAP2 POP POP DUP1 PUSH0 ADD SLOAD SWAP1 DUP1 PUSH1 0x1 ADD SLOAD SWAP1 POP DUP3 JUMP JUMPDEST PUSH2 0x679 PUSH2 0x7E8 JUMP JUMPDEST PUSH1 0x2 PUSH1 0x1 SLOAD DUP2 SLOAD DUP2 LT PUSH2 0x68F JUMPI PUSH2 0x68E PUSH2 0xE30 JUMP JUMPDEST JUMPDEST SWAP1 PUSH0 MSTORE PUSH1 0x20 PUSH0 KECCAK256 SWAP1 PUSH1 0x5 MUL ADD PUSH1 0x40 MLOAD DUP1 PUSH1 0xA0 ADD PUSH1 0x40 MSTORE SWAP1 DUP2 PUSH0 DUP3 ADD DUP1 SLOAD PUSH2 0x6B5 SWAP1 PUSH2 0xF99 JUMP JUMPDEST DUP1 PUSH1 0x1F ADD PUSH1 0x20 DUP1 SWAP2 DIV MUL PUSH1 0x20 ADD PUSH1 0x40 MLOAD SWAP1 DUP2 ADD PUSH1 0x40 MSTORE DUP1 SWAP3 SWAP2 SWAP1 DUP2 DUP2 MSTORE PUSH1 0x20 ADD DUP3 DUP1 SLOAD PUSH2 0x6E1 SWAP1 PUSH2 0xF99 JUMP JUMPDEST DUP1 ISZERO PUSH2 0x72C JUMPI DUP1 PUSH1 0x1F LT PUSH2 0x703 JUMPI PUSH2 0x100 DUP1 DUP4 SLOAD DIV MUL DUP4 MSTORE SWAP2 PUSH1 0x20 ADD SWAP2 PUSH2 0x72C JUMP JUMPDEST DUP3 ADD SWAP2 SWAP1 PUSH0 MSTORE PUSH1 0x20 PUSH0 KECCAK256 SWAP1 JUMPDEST DUP2 SLOAD DUP2 MSTORE SWAP1 PUSH1 0x1 ADD SWAP1 PUSH1 0x20 ADD DUP1 DUP4 GT PUSH2 0x70F JUMPI DUP3 SWAP1 SUB PUSH1 0x1F AND DUP3 ADD SWAP2 JUMPDEST POP POP POP POP POP DUP2 MSTORE PUSH1 0x20 ADD PUSH1 0x1 DUP3 ADD SLOAD DUP2 MSTORE PUSH1 0x20 ADD PUSH1 0x2 DUP3 ADD DUP1 SLOAD PUSH2 0x74F SWAP1 PUSH2 0xF99 JUMP JUMPDEST DUP1 PUSH1 0x1F ADD PUSH1 0x20 DUP1 SWAP2 DIV MUL PUSH1 0x20 ADD PUSH1 0x40 MLOAD SWAP1 DUP2 ADD PUSH1 0x40 MSTORE DUP1 SWAP3 SWAP2 SWAP1 DUP2 DUP2 MSTORE PUSH1 0x20 ADD DUP3 DUP1 SLOAD PUSH2 0x77B SWAP1 PUSH2 0xF99 JUMP JUMPDEST DUP1 ISZERO PUSH2 0x7C6 JUMPI DUP1 PUSH1 0x1F LT PUSH2 0x79D JUMPI PUSH2 0x100 DUP1 DUP4 SLOAD DIV MUL DUP4 MSTORE SWAP2 PUSH1 0x20 ADD SWAP2 PUSH2 0x7C6 JUMP JUMPDEST DUP3 ADD SWAP2 SWAP1 PUSH0 MSTORE PUSH1 0x20 PUSH0 KECCAK256 SWAP1 JUMPDEST DUP2 SLOAD DUP2 MSTORE SWAP1 PUSH1 0x1 ADD SWAP1 PUSH1 0x20 ADD DUP1 DUP4 GT PUSH2 0x7A9 JUMPI DUP3 SWAP1 SUB PUSH1 0x1F AND DUP3 ADD SWAP2 JUMPDEST POP POP POP POP POP DUP2 MSTORE PUSH1 0x20 ADD PUSH1 0x3 DUP3 ADD SLOAD DUP2 MSTORE PUSH1 0x20 ADD PUSH1 0x4 DUP3 ADD SLOAD DUP2 MSTORE POP POP SWAP1 POP SWAP1 JUMP JUMPDEST PUSH1 0x40 MLOAD DUP1 PUSH1 0xA0 ADD PUSH1 0x40 MSTORE DUP1 PUSH1 0x60 DUP2 MSTORE PUSH1 0x20 ADD PUSH0 DUP2 MSTORE PUSH1 0x20 ADD PUSH1 0x60 DUP2 MSTORE PUSH1 0x20 ADD PUSH0 DUP2 MSTORE PUSH1 0x20 ADD PUSH0 DUP2 MSTORE POP SWAP1 JUMP JUMPDEST PUSH0 PUSH1 0x40 MLOAD SWAP1 POP SWAP1 JUMP JUMPDEST PUSH0 DUP1 REVERT JUMPDEST PUSH0 DUP1 REVERT JUMPDEST PUSH0 DUP2 SWAP1 POP SWAP2 SWAP1 POP JUMP JUMPDEST PUSH2 0x837 DUP2 PUSH2 0x825 JUMP JUMPDEST DUP2 EQ PUSH2 0x841 JUMPI PUSH0 DUP1 REVERT JUMPDEST POP JUMP JUMPDEST PUSH0 DUP2 CALLDATALOAD SWAP1 POP PUSH2 0x852 DUP2 PUSH2 0x82E JUMP JUMPDEST SWAP3 SWAP2 POP POP JUMP JUMPDEST PUSH0 PUSH1 0x20 DUP3 DUP5 SUB SLT ISZERO PUSH2 0x86D JUMPI PUSH2 0x86C PUSH2 0x81D JUMP JUMPDEST JUMPDEST PUSH0 PUSH2 0x87A DUP5 DUP3 DUP6 ADD PUSH2 0x844 JUMP JUMPDEST SWAP2 POP POP SWAP3 SWAP2 POP POP JUMP JUMPDEST PUSH2 0x88C DUP2 PUSH2 0x825 JUMP JUMPDEST DUP3 MSTORE POP POP JUMP JUMPDEST PUSH0 PUSH1 0x20 DUP3 ADD SWAP1 POP PUSH2 0x8A5 PUSH0 DUP4 ADD DUP5 PUSH2 0x883 JUMP JUMPDEST SWAP3 SWAP2 POP POP JUMP JUMPDEST PUSH0 DUP1 REVERT JUMPDEST PUSH0 DUP1 REVERT JUMPDEST PUSH0 PUSH1 0x1F NOT PUSH1 0x1F DUP4 ADD AND SWAP1 POP SWAP2 SWAP1 POP JUMP JUMPDEST PUSH32 0x4E487B7100000000000000000000000000000000000000000000000000000000 PUSH0 MSTORE PUSH1 0x41 PUSH1 0x4 MSTORE PUSH1 0x24 PUSH0 REVERT JUMPDEST PUSH2 0x8F9 DUP3 PUSH2 0x8B3 JUMP JUMPDEST DUP2 ADD DUP2 DUP2 LT PUSH8 0xFFFFFFFFFFFFFFFF DUP3 GT OR ISZERO PUSH2 0x918 JUMPI PUSH2 0x917 PUSH2 0x8C3 JUMP JUMPDEST JUMPDEST DUP1 PUSH1 0x40 MSTORE POP POP POP JUMP JUMPDEST PUSH0 PUSH2 0x92A PUSH2 0x814 JUMP JUMPDEST SWAP1 POP PUSH2 0x936 DUP3 DUP3 PUSH2 0x8F0 JUMP JUMPDEST SWAP2 SWAP1 POP JUMP JUMPDEST PUSH0 PUSH8 0xFFFFFFFFFFFFFFFF DUP3 GT ISZERO PUSH2 0x955 JUMPI PUSH2 0x954 PUSH2 0x8C3 JUMP JUMPDEST JUMPDEST PUSH2 0x95E DUP3 PUSH2 0x8B3 JUMP JUMPDEST SWAP1 POP PUSH1 0x20 DUP2 ADD SWAP1 POP SWAP2 SWAP1 POP JUMP JUMPDEST DUP3 DUP2 DUP4 CALLDATACOPY PUSH0 DUP4 DUP4 ADD MSTORE POP POP POP JUMP JUMPDEST PUSH0 PUSH2 0x98B PUSH2 0x986 DUP5 PUSH2 0x93B JUMP JUMPDEST PUSH2 0x921 JUMP JUMPDEST SWAP1 POP DUP3 DUP2 MSTORE PUSH1 0x20 DUP2 ADD DUP5 DUP5 DUP5 ADD GT ISZERO PUSH2 0x9A7 JUMPI PUSH2 0x9A6 PUSH2 0x8AF JUMP JUMPDEST JUMPDEST PUSH2 0x9B2 DUP5 DUP3 DUP6 PUSH2 0x96B JUMP JUMPDEST POP SWAP4 SWAP3 POP POP POP JUMP JUMPDEST PUSH0 DUP3 PUSH1 0x1F DUP4 ADD SLT PUSH2 0x9CE JUMPI PUSH2 0x9CD PUSH2 0x8AB JUMP JUMPDEST JUMPDEST DUP2 CALLDATALOAD PUSH2 0x9DE DUP5 DUP3 PUSH1 0x20 DUP7 ADD PUSH2 0x979 JUMP JUMPDEST SWAP2 POP POP SWAP3 SWAP2 POP POP JUMP JUMPDEST PUSH0 DUP1 PUSH0 PUSH1 0x60 DUP5 DUP7 SUB SLT ISZERO PUSH2 0x9FE JUMPI PUSH2 0x9FD PUSH2 0x81D JUMP JUMPDEST JUMPDEST PUSH0 DUP5 ADD CALLDATALOAD PUSH8 0xFFFFFFFFFFFFFFFF DUP2 GT ISZERO PUSH2 0xA1B JUMPI PUSH2 0xA1A PUSH2 0x821 JUMP JUMPDEST JUMPDEST PUSH2 0xA27 DUP7 DUP3 DUP8 ADD PUSH2 0x9BA JUMP JUMPDEST SWAP4 POP POP PUSH1 0x20 DUP5 ADD CALLDATALOAD PUSH8 0xFFFFFFFFFFFFFFFF DUP2 GT ISZERO PUSH2 0xA48 JUMPI PUSH2 0xA47 PUSH2 0x821 JUMP JUMPDEST JUMPDEST PUSH2 0xA54 DUP7 DUP3 DUP8 ADD PUSH2 0x9BA JUMP JUMPDEST SWAP3 POP POP PUSH1 0x40 PUSH2 0xA65 DUP7 DUP3 DUP8 ADD PUSH2 0x844 JUMP JUMPDEST SWAP2 POP POP SWAP3 POP SWAP3 POP SWAP3 JUMP JUMPDEST PUSH0 DUP2 MLOAD SWAP1 POP SWAP2 SWAP1 POP JUMP JUMPDEST PUSH0 DUP3 DUP3 MSTORE PUSH1 0x20 DUP3 ADD SWAP1 POP SWAP3 SWAP2 POP POP JUMP JUMPDEST PUSH0 JUMPDEST DUP4 DUP2 LT ISZERO PUSH2 0xAA6 JUMPI DUP1 DUP3 ADD MLOAD DUP2 DUP5 ADD MSTORE PUSH1 0x20 DUP2 ADD SWAP1 POP PUSH2 0xA8B JUMP JUMPDEST PUSH0 DUP5 DUP5 ADD MSTORE POP POP POP POP JUMP JUMPDEST PUSH0 PUSH2 0xABB DUP3 PUSH2 0xA6F JUMP JUMPDEST PUSH2 0xAC5 DUP2 DUP6 PUSH2 0xA79 JUMP JUMPDEST SWAP4 POP PUSH2 0xAD5 DUP2 DUP6 PUSH1 0x20 DUP7 ADD PUSH2 0xA89 JUMP JUMPDEST PUSH2 0xADE DUP2 PUSH2 0x8B3 JUMP JUMPDEST DUP5 ADD SWAP2 POP POP SWAP3 SWAP2 POP POP JUMP JUMPDEST PUSH0 PUSH1 0xA0 DUP3 ADD SWAP1 POP DUP2 DUP2 SUB PUSH0 DUP4 ADD MSTORE PUSH2 0xB01 DUP2 DUP9 PUSH2 0xAB1 JUMP JUMPDEST SWAP1 POP PUSH2 0xB10 PUSH1 0x20 DUP4 ADD DUP8 PUSH2 0x883 JUMP JUMPDEST DUP2 DUP2 SUB PUSH1 0x40 DUP4 ADD MSTORE PUSH2 0xB22 DUP2 DUP7 PUSH2 0xAB1 JUMP JUMPDEST SWAP1 POP PUSH2 0xB31 PUSH1 0x60 DUP4 ADD DUP6 PUSH2 0x883 JUMP JUMPDEST PUSH2 0xB3E PUSH1 0x80 DUP4 ADD DUP5 PUSH2 0x883 JUMP JUMPDEST SWAP7 SWAP6 POP POP POP POP POP POP JUMP JUMPDEST PUSH0 PUSH20 0xFFFFFFFFFFFFFFFFFFFFFFFFFFFFFFFFFFFFFFFF DUP3 AND SWAP1 POP SWAP2 SWAP1 POP JUMP JUMPDEST PUSH0 PUSH2 0xB71 DUP3 PUSH2 0xB48 JUMP JUMPDEST SWAP1 POP SWAP2 SWAP1 POP JUMP JUMPDEST PUSH2 0xB81 DUP2 PUSH2 0xB67 JUMP JUMPDEST DUP2 EQ PUSH2 0xB8B JUMPI PUSH0 DUP1 REVERT JUMPDEST POP JUMP JUMPDEST PUSH0 DUP2 CALLDATALOAD SWAP1 POP PUSH2 0xB9C DUP2 PUSH2 0xB78 JUMP JUMPDEST SWAP3 SWAP2 POP POP JUMP JUMPDEST PUSH0 DUP1 PUSH1 0x40 DUP4 DUP6 SUB SLT ISZERO PUSH2 0xBB8 JUMPI PUSH2 0xBB7 PUSH2 0x81D JUMP JUMPDEST JUMPDEST PUSH0 PUSH2 0xBC5 DUP6 DUP3 DUP7 ADD PUSH2 0x844 JUMP JUMPDEST SWAP3 POP POP PUSH1 0x20 PUSH2 0xBD6 DUP6 DUP3 DUP7 ADD PUSH2 0xB8E JUMP JUMPDEST SWAP2 POP POP SWAP3 POP SWAP3 SWAP1 POP JUMP JUMPDEST PUSH0 PUSH1 0x40 DUP3 ADD SWAP1 POP PUSH2 0xBF3 PUSH0 DUP4 ADD DUP6 PUSH2 0x883 JUMP JUMPDEST PUSH2 0xC00 PUSH1 0x20 DUP4 ADD DUP5 PUSH2 0x883 JUMP JUMPDEST SWAP4 SWAP3 POP POP POP JUMP JUMPDEST PUSH0 DUP3 DUP3 MSTORE PUSH1 0x20 DUP3 ADD SWAP1 POP SWAP3 SWAP2 POP POP JUMP JUMPDEST PUSH0 PUSH2 0xC21 DUP3 PUSH2 0xA6F JUMP JUMPDEST PUSH2 0xC2B DUP2 DUP6 PUSH2 0xC07 JUMP JUMPDEST SWAP4 POP PUSH2 0xC3B DUP2 DUP6 PUSH1 0x20 DUP7 ADD PUSH2 0xA89 JUMP JUMPDEST PUSH2 0xC44 DUP2 PUSH2 0x8B3 JUMP JUMPDEST DUP5 ADD SWAP2 POP POP SWAP3 SWAP2 POP POP JUMP JUMPDEST PUSH2 0xC58 DUP2 PUSH2 0x825 JUMP JUMPDEST DUP3 MSTORE POP POP JUMP JUMPDEST PUSH0 PUSH1 0xA0 DUP4 ADD PUSH0 DUP4 ADD MLOAD DUP5 DUP3 SUB PUSH0 DUP7 ADD MSTORE PUSH2 0xC78 DUP3 DUP3 PUSH2 0xC17 JUMP JUMPDEST SWAP2 POP POP PUSH1 0x20 DUP4 ADD MLOAD PUSH2 0xC8D PUSH1 0x20 DUP7 ADD DUP3 PUSH2 0xC4F JUMP JUMPDEST POP PUSH1 0x40 DUP4 ADD MLOAD DUP5 DUP3 SUB PUSH1 0x40 DUP7 ADD MSTORE PUSH2 0xCA5 DUP3 DUP3 PUSH2 0xC17 JUMP JUMPDEST SWAP2 POP POP PUSH1 0x60 DUP4 ADD MLOAD PUSH2 0xCBA PUSH1 0x60 DUP7 ADD DUP3 PUSH2 0xC4F JUMP JUMPDEST POP PUSH1 0x80 DUP4 ADD MLOAD PUSH2 0xCCD PUSH1 0x80 DUP7 ADD DUP3 PUSH2 0xC4F JUMP JUMPDEST POP DUP1 SWAP2 POP POP SWAP3 SWAP2 POP POP JUMP JUMPDEST PUSH0 PUSH1 0x20 DUP3 ADD SWAP1 POP DUP2 DUP2 SUB PUSH0 DUP4 ADD MSTORE PUSH2 0xCF0 DUP2 DUP5 PUSH2 0xC5E JUMP JUMPDEST SWAP1 POP SWAP3 SWAP2 POP POP JUMP JUMPDEST PUSH32 0x496E76616C69642063686F696365000000000000000000000000000000000000 PUSH0 DUP3 ADD MSTORE POP JUMP JUMPDEST PUSH0 PUSH2 0xD2C PUSH1 0xE DUP4 PUSH2 0xA79 JUMP JUMPDEST SWAP2 POP PUSH2 0xD37 DUP3 PUSH2 0xCF8 JUMP JUMPDEST PUSH1 0x20 DUP3 ADD SWAP1 POP SWAP2 SWAP1 POP JUMP JUMPDEST PUSH0 PUSH1 0x20 DUP3 ADD SWAP1 POP DUP2 DUP2 SUB PUSH0 DUP4 ADD MSTORE PUSH2 0xD59 DUP2 PUSH2 0xD20 JUMP JUMPDEST SWAP1 POP SWAP2 SWAP1 POP JUMP JUMPDEST PUSH32 0x4E6F206F70656E20766F74696E67000000000000000000000000000000000000 PUSH0 DUP3 ADD MSTORE POP JUMP JUMPDEST PUSH0 PUSH2 0xD94 PUSH1 0xE DUP4 PUSH2 0xA79 JUMP JUMPDEST SWAP2 POP PUSH2 0xD9F DUP3 PUSH2 0xD60 JUMP JUMPDEST PUSH1 0x20 DUP3 ADD SWAP1 POP SWAP2 SWAP1 POP JUMP JUMPDEST PUSH0 PUSH1 0x20 DUP3 ADD SWAP1 POP DUP2 DUP2 SUB PUSH0 DUP4 ADD MSTORE PUSH2 0xDC1 DUP2 PUSH2 0xD88 JUMP JUMPDEST SWAP1 POP SWAP2 SWAP1 POP JUMP JUMPDEST PUSH32 0x596F7520616C726561647920766F746564206F6E207468697320766F74696E67 PUSH0 DUP3 ADD MSTORE POP JUMP JUMPDEST PUSH0 PUSH2 0xDFC PUSH1 0x20 DUP4 PUSH2 0xA79 JUMP JUMPDEST SWAP2 POP PUSH2 0xE07 DUP3 PUSH2 0xDC8 JUMP JUMPDEST PUSH1 0x20 DUP3 ADD SWAP1 POP SWAP2 SWAP1 POP JUMP JUMPDEST PUSH0 PUSH1 0x20 DUP3 ADD SWAP1 POP DUP2 DUP2 SUB PUSH0 DUP4 ADD MSTORE PUSH2 0xE29 DUP2 PUSH2 0xDF0 JUMP JUMPDEST SWAP1 POP SWAP2 SWAP1 POP JUMP JUMPDEST PUSH32 0x4E487B7100000000000000000000000000000000000000000000000000000000 PUSH0 MSTORE PUSH1 0x32 PUSH1 0x4 MSTORE PUSH1 0x24 PUSH0 REVERT JUMPDEST PUSH32 0x4E487B7100000000000000000000000000000000000000000000000000000000 PUSH0 MSTORE PUSH1 0x11 PUSH1 0x4 MSTORE PUSH1 0x24 PUSH0 REVERT JUMPDEST PUSH0 PUSH2 0xE94 DUP3 PUSH2 0x825 JUMP JUMPDEST SWAP2 POP PUSH32 0xFFFFFFFFFFFFFFFFFFFFFFFFFFFFFFFFFFFFFFFFFFFFFFFFFFFFFFFFFFFFFFFF DUP3 SUB PUSH2 0xEC6 JUMPI PUSH2 0xEC5 PUSH2 0xE5D JUMP JUMPDEST JUMPDEST PUSH1 0x1 DUP3 ADD SWAP1 POP SWAP2 SWAP1 POP JUMP JUMPDEST PUSH32 0x496E76616C69642073656E646572000000000000000000000000000000000000 PUSH0 DUP3 ADD MSTORE POP JUMP JUMPDEST PUSH0 PUSH2 0xF05 PUSH1 0xE DUP4 PUSH2 0xA79 JUMP JUMPDEST SWAP2 POP PUSH2 0xF10 DUP3 PUSH2 0xED1 JUMP JUMPDEST PUSH1 0x20 DUP3 ADD SWAP1 POP SWAP2 SWAP1 POP JUMP JUMPDEST PUSH0 PUSH1 0x20 DUP3 ADD SWAP1 POP DUP2 DUP2 SUB PUSH0 DUP4 ADD MSTORE PUSH2 0xF32 DUP2 PUSH2 0xEF9 JUMP JUMPDEST SWAP1 POP SWAP2 SWAP1 POP JUMP JUMPDEST PUSH0 PUSH2 0xF43 DUP3 PUSH2 0x825 JUMP JUMPDEST SWAP2 POP PUSH2 0xF4E DUP4 PUSH2 0x825 JUMP JUMPDEST SWAP3 POP DUP3 DUP3 ADD SWAP1 POP DUP1 DUP3 GT ISZERO PUSH2 0xF66 JUMPI PUSH2 0xF65 PUSH2 0xE5D JUMP JUMPDEST JUMPDEST SWAP3 SWAP2 POP POP JUMP JUMPDEST PUSH32 0x4E487B7100000000000000000000000000000000000000000000000000000000 PUSH0 MSTORE PUSH1 0x22 PUSH1 0x4 MSTORE PUSH1 0x24 PUSH0 REVERT JUMPDEST PUSH0 PUSH1 0x2 DUP3 DIV SWAP1 POP PUSH1 0x1 DUP3 AND DUP1 PUSH2 0xFB0 JUMPI PUSH1 0x7F DUP3 AND SWAP2 POP JUMPDEST PUSH1 0x20 DUP3 LT DUP2 SUB PUSH2 0xFC3 JUMPI PUSH2 0xFC2 PUSH2 0xF6C JUMP JUMPDEST JUMPDEST POP SWAP2 SWAP1 POP JUMP JUMPDEST PUSH0 DUP2 SWAP1 POP DUP2 PUSH0 MSTORE PUSH1 0x20 PUSH0 KECCAK256 SWAP1 POP SWAP2 SWAP1 POP JUMP JUMPDEST PUSH0 PUSH1 0x20 PUSH1 0x1F DUP4 ADD DIV SWAP1 POP SWAP2 SWAP1 POP JUMP JUMPDEST PUSH0 DUP3 DUP3 SHL SWAP1 POP SWAP3 SWAP2 POP POP JUMP JUMPDEST PUSH0 PUSH1 0x8 DUP4 MUL PUSH2 0x1025 PUSH32 0xFFFFFFFFFFFFFFFFFFFFFFFFFFFFFFFFFFFFFFFFFFFFFFFFFFFFFFFFFFFFFFFF DUP3 PUSH2 0xFEA JUMP JUMPDEST PUSH2 0x102F DUP7 DUP4 PUSH2 0xFEA JUMP JUMPDEST SWAP6 POP DUP1 NOT DUP5 AND SWAP4 POP DUP1 DUP7 AND DUP5 OR SWAP3 POP POP POP SWAP4 SWAP3 POP POP POP JUMP JUMPDEST PUSH0 DUP2 SWAP1 POP SWAP2 SWAP1 POP JUMP JUMPDEST PUSH0 PUSH2 0x106A PUSH2 0x1065 PUSH2 0x1060 DUP5 PUSH2 0x825 JUMP JUMPDEST PUSH2 0x1047 JUMP JUMPDEST PUSH2 0x825 JUMP JUMPDEST SWAP1 POP SWAP2 SWAP1 POP JUMP JUMPDEST PUSH0 DUP2 SWAP1 POP SWAP2 SWAP1 POP JUMP JUMPDEST PUSH2 0x1083 DUP4 PUSH2 0x1050 JUMP JUMPDEST PUSH2 0x1097 PUSH2 0x108F DUP3 PUSH2 0x1071 JUMP JUMPDEST DUP5 DUP5 SLOAD PUSH2 0xFF6 JUMP JUMPDEST DUP3 SSTORE POP POP POP POP JUMP JUMPDEST PUSH0 SWAP1 JUMP JUMPDEST PUSH2 0x10AB PUSH2 0x109F JUMP JUMPDEST PUSH2 0x10B6 DUP2 DUP5 DUP5 PUSH2 0x107A JUMP JUMPDEST POP POP POP JUMP JUMPDEST JUMPDEST DUP2 DUP2 LT ISZERO PUSH2 0x10D9 JUMPI PUSH2 0x10CE PUSH0 DUP3 PUSH2 0x10A3 JUMP JUMPDEST PUSH1 0x1 DUP2 ADD SWAP1 POP PUSH2 0x10BC JUMP JUMPDEST POP POP JUMP JUMPDEST PUSH1 0x1F DUP3 GT ISZERO PUSH2 0x111E JUMPI PUSH2 0x10EF DUP2 PUSH2 0xFC9 JUMP JUMPDEST PUSH2 0x10F8 DUP5 PUSH2 0xFDB JUMP JUMPDEST DUP2 ADD PUSH1 0x20 DUP6 LT ISZERO PUSH2 0x1107 JUMPI DUP2 SWAP1 POP JUMPDEST PUSH2 0x111B PUSH2 0x1113 DUP6 PUSH2 0xFDB JUMP JUMPDEST DUP4 ADD DUP3 PUSH2 0x10BB JUMP JUMPDEST POP POP JUMPDEST POP POP POP JUMP JUMPDEST PUSH0 DUP3 DUP3 SHR SWAP1 POP SWAP3 SWAP2 POP POP JUMP JUMPDEST PUSH0 PUSH2 0x113E PUSH0 NOT DUP5 PUSH1 0x8 MUL PUSH2 0x1123 JUMP JUMPDEST NOT DUP1 DUP4 AND SWAP2 POP POP SWAP3 SWAP2 POP POP JUMP JUMPDEST PUSH0 PUSH2 0x1156 DUP4 DUP4 PUSH2 0x112F JUMP JUMPDEST SWAP2 POP DUP3 PUSH1 0x2 MUL DUP3 OR SWAP1 POP SWAP3 SWAP2 POP POP JUMP JUMPDEST PUSH2 0x116F DUP3 PUSH2 0xA6F JUMP JUMPDEST PUSH8 0xFFFFFFFFFFFFFFFF DUP2 GT ISZERO PUSH2 0x1188 JUMPI PUSH2 0x1187 PUSH2 0x8C3 JUMP JUMPDEST JUMPDEST PUSH2 0x1192 DUP3 SLOAD PUSH2 0xF99 JUMP JUMPDEST PUSH2 0x119D DUP3 DUP3 DUP6 PUSH2 0x10DD JUMP JUMPDEST PUSH0 PUSH1 0x20 SWAP1 POP PUSH1 0x1F DUP4 GT PUSH1 0x1 DUP2 EQ PUSH2 0x11CE JUMPI PUSH0 DUP5 ISZERO PUSH2 0x11BC JUMPI DUP3 DUP8 ADD MLOAD SWAP1 POP JUMPDEST PUSH2 0x11C6 DUP6 DUP3 PUSH2 0x114B JUMP JUMPDEST DUP7 SSTORE POP PUSH2 0x122D JUMP JUMPDEST PUSH1 0x1F NOT DUP5 AND PUSH2 0x11DC DUP7 PUSH2 0xFC9 JUMP JUMPDEST PUSH0 JUMPDEST DUP3 DUP2 LT ISZERO PUSH2 0x1203 JUMPI DUP5 DUP10 ADD MLOAD DUP3 SSTORE PUSH1 0x1 DUP3 ADD SWAP2 POP PUSH1 0x20 DUP6 ADD SWAP5 POP PUSH1 0x20 DUP2 ADD SWAP1 POP PUSH2 0x11DE JUMP JUMPDEST DUP7 DUP4 LT ISZERO PUSH2 0x1220 JUMPI DUP5 DUP10 ADD MLOAD PUSH2 0x121C PUSH1 0x1F DUP10 AND DUP3 PUSH2 0x112F JUMP JUMPDEST DUP4 SSTORE POP JUMPDEST PUSH1 0x1 PUSH1 0x2 DUP9 MUL ADD DUP9 SSTORE POP POP POP JUMPDEST POP POP POP POP POP POP JUMP INVALID LOG2 PUSH5 0x6970667358 0x22 SLT KECCAK256 0xB6 PUSH8 0x5B5E598F68DF0A08 PUSH28 0xA0E6EC7E2AA311B3122B7DDCE6DE5E512719C8127764736F6C634300 ADDMOD XOR STOP CALLER "
				},
				"gasEstimates": {
					"creation": {
						"codeDepositCost": "943000",
						"executionCost": "30249",
						"totalCost": "973249"
					},
					"external": {
						"addVote(uint256)": "infinite",
						"addVoting(string,string,uint256)": "infinite",
						"currentVoting()": "2425",
						"getCurrentVoting()": "infinite",
						"votes(uint256,address)": "infinite",
						"votings(uint256)": "infinite"
					}
				},
				"methodIdentifiers": {
					"addVote(uint256)": "0383badc",
					"addVoting(string,string,uint256)": "55f9b1ec",
					"currentVoting()": "1c7bec9d",
					"getCurrentVoting()": "f1156cdf",
					"votes(uint256,address)": "d23254b4",
					"votings(uint256)": "a598d03c"
				}
			},
			"storageLayout": {
				"storage": [
					{
						"astId": 19,
						"contract": "contracts/Web3Voting.sol:Web3Voting",
						"label": "owner",
						"offset": 0,
						"slot": "0",
						"type": "t_address"
					},
					{
						"astId": 22,
						"contract": "contracts/Web3Voting.sol:Web3Voting",
						"label": "currentVoting",
						"offset": 0,
						"slot": "1",
						"type": "t_uint256"
					},
					{
						"astId": 26,
						"contract": "contracts/Web3Voting.sol:Web3Voting",
						"label": "votings",
						"offset": 0,
						"slot": "2",
						"type": "t_array(t_struct(Voting)12_storage)dyn_storage"
					},
					{
						"astId": 33,
						"contract": "contracts/Web3Voting.sol:Web3Voting",
						"label": "votes",
						"offset": 0,
						"slot": "3",
						"type": "t_mapping(t_uint256,t_mapping(t_address,t_struct(Vote)17_storage))"
					}
				],
				"types": {
					"t_address": {
						"encoding": "inplace",
						"label": "address",
						"numberOfBytes": "20"
					},
					"t_array(t_struct(Voting)12_storage)dyn_storage": {
						"base": "t_struct(Voting)12_storage",
						"encoding": "dynamic_array",
						"label": "struct Voting[]",
						"numberOfBytes": "32"
					},
					"t_mapping(t_address,t_struct(Vote)17_storage)": {
						"encoding": "mapping",
						"key": "t_address",
						"label": "mapping(address => struct Vote)",
						"numberOfBytes": "32",
						"value": "t_struct(Vote)17_storage"
					},
					"t_mapping(t_uint256,t_mapping(t_address,t_struct(Vote)17_storage))": {
						"encoding": "mapping",
						"key": "t_uint256",
						"label": "mapping(uint256 => mapping(address => struct Vote))",
						"numberOfBytes": "32",
						"value": "t_mapping(t_address,t_struct(Vote)17_storage)"
					},
					"t_string_storage": {
						"encoding": "bytes",
						"label": "string",
						"numberOfBytes": "32"
					},
					"t_struct(Vote)17_storage": {
						"encoding": "inplace",
						"label": "struct Vote",
						"members": [
							{
								"astId": 14,
								"contract": "contracts/Web3Voting.sol:Web3Voting",
								"label": "choice",
								"offset": 0,
								"slot": "0",
								"type": "t_uint256"
							},
							{
								"astId": 16,
								"contract": "contracts/Web3Voting.sol:Web3Voting",
								"label": "date",
								"offset": 0,
								"slot": "1",
								"type": "t_uint256"
							}
						],
						"numberOfBytes": "64"
					},
					"t_struct(Voting)12_storage": {
						"encoding": "inplace",
						"label": "struct Voting",
						"members": [
							{
								"astId": 3,
								"contract": "contracts/Web3Voting.sol:Web3Voting",
								"label": "option1",
								"offset": 0,
								"slot": "0",
								"type": "t_string_storage"
							},
							{
								"astId": 5,
								"contract": "contracts/Web3Voting.sol:Web3Voting",
								"label": "votes1",
								"offset": 0,
								"slot": "1",
								"type": "t_uint256"
							},
							{
								"astId": 7,
								"contract": "contracts/Web3Voting.sol:Web3Voting",
								"label": "option2",
								"offset": 0,
								"slot": "2",
								"type": "t_string_storage"
							},
							{
								"astId": 9,
								"contract": "contracts/Web3Voting.sol:Web3Voting",
								"label": "votes2",
								"offset": 0,
								"slot": "3",
								"type": "t_uint256"
							},
							{
								"astId": 11,
								"contract": "contracts/Web3Voting.sol:Web3Voting",
								"label": "maxDate",
								"offset": 0,
								"slot": "4",
								"type": "t_uint256"
							}
						],
						"numberOfBytes": "160"
					},
					"t_uint256": {
						"encoding": "inplace",
						"label": "uint256",
						"numberOfBytes": "32"
					}
				}
			},
			"userdoc": {
				"kind": "user",
				"methods": {},
				"version": 1
			}
		}
	}
}